{
  "_format": "hh-sol-artifact-1",
  "contractName": "GoodieBag",
  "sourceName": "contracts/GoodieBag.sol",
  "abi": [
    {
      "inputs": [],
      "stateMutability": "nonpayable",
      "type": "constructor"
    },
    {
      "anonymous": false,
      "inputs": [
        {
          "indexed": true,
          "internalType": "address",
          "name": "owner",
          "type": "address"
        },
        {
          "indexed": true,
          "internalType": "address",
          "name": "approved",
          "type": "address"
        },
        {
          "indexed": true,
          "internalType": "uint256",
          "name": "tokenId",
          "type": "uint256"
        }
      ],
      "name": "Approval",
      "type": "event"
    },
    {
      "anonymous": false,
      "inputs": [
        {
          "indexed": true,
          "internalType": "address",
          "name": "owner",
          "type": "address"
        },
        {
          "indexed": true,
          "internalType": "address",
          "name": "operator",
          "type": "address"
        },
        {
          "indexed": false,
          "internalType": "bool",
          "name": "approved",
          "type": "bool"
        }
      ],
      "name": "ApprovalForAll",
      "type": "event"
    },
    {
      "anonymous": false,
      "inputs": [
        {
          "indexed": true,
          "internalType": "address",
          "name": "from",
          "type": "address"
        },
        {
          "indexed": true,
          "internalType": "address",
          "name": "to",
          "type": "address"
        },
        {
          "indexed": true,
          "internalType": "uint256",
          "name": "tokenId",
          "type": "uint256"
        }
      ],
      "name": "Transfer",
      "type": "event"
    },
    {
      "inputs": [
        {
          "internalType": "address",
          "name": "to",
          "type": "address"
        },
        {
          "internalType": "uint256",
          "name": "tokenId",
          "type": "uint256"
        }
      ],
      "name": "approve",
      "outputs": [],
      "stateMutability": "nonpayable",
      "type": "function"
    },
    {
      "inputs": [
        {
          "internalType": "address",
          "name": "owner",
          "type": "address"
        }
      ],
      "name": "balanceOf",
      "outputs": [
        {
          "internalType": "uint256",
          "name": "",
          "type": "uint256"
        }
      ],
      "stateMutability": "view",
      "type": "function"
    },
    {
      "inputs": [
        {
          "internalType": "uint256",
          "name": "tokenId",
          "type": "uint256"
        }
      ],
      "name": "getApproved",
      "outputs": [
        {
          "internalType": "address",
          "name": "",
          "type": "address"
        }
      ],
      "stateMutability": "view",
      "type": "function"
    },
    {
      "inputs": [
        {
          "internalType": "uint256",
          "name": "nft",
          "type": "uint256"
        },
        {
          "internalType": "uint256",
          "name": "index",
          "type": "uint256"
        }
      ],
      "name": "getNFTTokenAddress",
      "outputs": [
        {
          "internalType": "address",
          "name": "",
          "type": "address"
        }
      ],
      "stateMutability": "view",
      "type": "function"
    },
    {
      "inputs": [
        {
          "internalType": "uint256",
          "name": "nft",
          "type": "uint256"
        },
        {
          "internalType": "address",
          "name": "tokenAddress",
          "type": "address"
        }
      ],
      "name": "getNFTTokenBalance",
      "outputs": [
        {
          "internalType": "uint256",
          "name": "",
          "type": "uint256"
        }
      ],
      "stateMutability": "view",
      "type": "function"
    },
    {
      "inputs": [
        {
          "internalType": "uint256",
          "name": "nft",
          "type": "uint256"
        }
      ],
      "name": "getNFTTokenCount",
      "outputs": [
        {
          "internalType": "uint256",
          "name": "",
          "type": "uint256"
        }
      ],
      "stateMutability": "view",
      "type": "function"
    },
    {
      "inputs": [
        {
          "internalType": "address",
          "name": "owner",
          "type": "address"
        },
        {
          "internalType": "address",
          "name": "operator",
          "type": "address"
        }
      ],
      "name": "isApprovedForAll",
      "outputs": [
        {
          "internalType": "bool",
          "name": "",
          "type": "bool"
        }
      ],
      "stateMutability": "view",
      "type": "function"
    },
    {
      "inputs": [],
      "name": "mint",
      "outputs": [],
      "stateMutability": "payable",
      "type": "function"
    },
    {
      "inputs": [],
      "name": "name",
      "outputs": [
        {
          "internalType": "string",
          "name": "",
          "type": "string"
        }
      ],
      "stateMutability": "view",
      "type": "function"
    },
    {
      "inputs": [
        {
          "internalType": "uint256",
          "name": "tokenId",
          "type": "uint256"
        }
      ],
      "name": "ownerOf",
      "outputs": [
        {
          "internalType": "address",
          "name": "",
          "type": "address"
        }
      ],
      "stateMutability": "view",
      "type": "function"
    },
    {
      "inputs": [
        {
          "internalType": "uint256",
          "name": "token",
          "type": "uint256"
        }
      ],
      "name": "redeem",
      "outputs": [],
      "stateMutability": "nonpayable",
      "type": "function"
    },
    {
      "inputs": [
        {
          "internalType": "address",
          "name": "from",
          "type": "address"
        },
        {
          "internalType": "address",
          "name": "to",
          "type": "address"
        },
        {
          "internalType": "uint256",
          "name": "tokenId",
          "type": "uint256"
        }
      ],
      "name": "safeTransferFrom",
      "outputs": [],
      "stateMutability": "nonpayable",
      "type": "function"
    },
    {
      "inputs": [
        {
          "internalType": "address",
          "name": "from",
          "type": "address"
        },
        {
          "internalType": "address",
          "name": "to",
          "type": "address"
        },
        {
          "internalType": "uint256",
          "name": "tokenId",
          "type": "uint256"
        },
        {
          "internalType": "bytes",
          "name": "_data",
          "type": "bytes"
        }
      ],
      "name": "safeTransferFrom",
      "outputs": [],
      "stateMutability": "nonpayable",
      "type": "function"
    },
    {
      "inputs": [
        {
          "internalType": "address",
          "name": "operator",
          "type": "address"
        },
        {
          "internalType": "bool",
          "name": "approved",
          "type": "bool"
        }
      ],
      "name": "setApprovalForAll",
      "outputs": [],
      "stateMutability": "nonpayable",
      "type": "function"
    },
    {
      "inputs": [
        {
          "internalType": "bytes4",
          "name": "interfaceId",
          "type": "bytes4"
        }
      ],
      "name": "supportsInterface",
      "outputs": [
        {
          "internalType": "bool",
          "name": "",
          "type": "bool"
        }
      ],
      "stateMutability": "view",
      "type": "function"
    },
    {
      "inputs": [],
      "name": "symbol",
      "outputs": [
        {
          "internalType": "string",
          "name": "",
          "type": "string"
        }
      ],
      "stateMutability": "view",
      "type": "function"
    },
    {
      "inputs": [
        {
          "internalType": "uint256",
          "name": "index",
          "type": "uint256"
        }
      ],
      "name": "tokenByIndex",
      "outputs": [
        {
          "internalType": "uint256",
          "name": "",
          "type": "uint256"
        }
      ],
      "stateMutability": "view",
      "type": "function"
    },
    {
      "inputs": [
        {
          "internalType": "address",
          "name": "owner",
          "type": "address"
        },
        {
          "internalType": "uint256",
          "name": "index",
          "type": "uint256"
        }
      ],
      "name": "tokenOfOwnerByIndex",
      "outputs": [
        {
          "internalType": "uint256",
          "name": "",
          "type": "uint256"
        }
      ],
      "stateMutability": "view",
      "type": "function"
    },
    {
      "inputs": [
        {
          "internalType": "uint256",
          "name": "tokenId",
          "type": "uint256"
        }
      ],
      "name": "tokenURI",
      "outputs": [
        {
          "internalType": "string",
          "name": "",
          "type": "string"
        }
      ],
      "stateMutability": "view",
      "type": "function"
    },
    {
      "inputs": [],
      "name": "totalSupply",
      "outputs": [
        {
          "internalType": "uint256",
          "name": "",
          "type": "uint256"
        }
      ],
      "stateMutability": "view",
      "type": "function"
    },
    {
      "inputs": [
        {
          "internalType": "address",
          "name": "from",
          "type": "address"
        },
        {
          "internalType": "address",
          "name": "to",
          "type": "address"
        },
        {
          "internalType": "uint256",
          "name": "tokenId",
          "type": "uint256"
        }
      ],
      "name": "transferFrom",
      "outputs": [],
      "stateMutability": "nonpayable",
      "type": "function"
    }
  ],
  "bytecode": "0x60806040523480156200001157600080fd5b506040518060400160405280600981526020017f476f6f64696542616700000000000000000000000000000000000000000000008152506040518060400160405280600481526020017f4742616700000000000000000000000000000000000000000000000000000000815250816000908051906020019062000096929190620000b8565b508060019080519060200190620000af929190620000b8565b505050620001cd565b828054620000c69062000168565b90600052602060002090601f016020900481019282620000ea576000855562000136565b82601f106200010557805160ff191683800117855562000136565b8280016001018555821562000136579182015b828111156200013557825182559160200191906001019062000118565b5b50905062000145919062000149565b5090565b5b80821115620001645760008160009055506001016200014a565b5090565b600060028204905060018216806200018157607f821691505b602082108114156200019857620001976200019e565b5b50919050565b7f4e487b7100000000000000000000000000000000000000000000000000000000600052602260045260246000fd5b6141fc80620001dd6000396000f3fe60806040526004361061012a5760003560e01c80634f6ccce7116100ab578063b88d4fde1161006f578063b88d4fde14610409578063c87b56dd14610432578063db006a751461046f578063e985e9c514610498578063e9fee711146104d5578063eb979439146105125761012a565b80634f6ccce7146102fe5780636352211e1461033b57806370a082311461037857806395d89b41146103b5578063a22cb465146103e05761012a565b80631249c58b116100f25780631249c58b1461023a57806318160ddd1461024457806323b872dd1461026f5780632f745c591461029857806342842e0e146102d55761012a565b806301ffc9a71461012f57806306fdde031461016c578063081812fc14610197578063095ea7b3146101d457806310c6d8ef146101fd575b600080fd5b34801561013b57600080fd5b5061015660048036038101906101519190612ec8565b61054f565b6040516101639190613516565b60405180910390f35b34801561017857600080fd5b506101816105c9565b60405161018e9190613531565b60405180910390f35b3480156101a357600080fd5b506101be60048036038101906101b99190612f1a565b61065b565b6040516101cb9190613486565b60405180910390f35b3480156101e057600080fd5b506101fb60048036038101906101f69190612e63565b6106e0565b005b34801561020957600080fd5b50610224600480360381019061021f9190612f6c565b6107f8565b604051610231919061385b565b60405180910390f35b610242610856565b005b34801561025057600080fd5b50610259610961565b604051610266919061385b565b60405180910390f35b34801561027b57600080fd5b5061029660048036038101906102919190612d5d565b61096e565b005b3480156102a457600080fd5b506102bf60048036038101906102ba9190612e63565b6109ce565b6040516102cc919061385b565b60405180910390f35b3480156102e157600080fd5b506102fc60048036038101906102f79190612d5d565b610a73565b005b34801561030a57600080fd5b5061032560048036038101906103209190612f1a565b610a93565b604051610332919061385b565b60405180910390f35b34801561034757600080fd5b50610362600480360381019061035d9190612f1a565b610b2a565b60405161036f9190613486565b60405180910390f35b34801561038457600080fd5b5061039f600480360381019061039a9190612cf8565b610bdc565b6040516103ac919061385b565b60405180910390f35b3480156103c157600080fd5b506103ca610c94565b6040516103d79190613531565b60405180910390f35b3480156103ec57600080fd5b5061040760048036038101906104029190612e27565b610d26565b005b34801561041557600080fd5b50610430600480360381019061042b9190612dac565b610d3c565b005b34801561043e57600080fd5b5061045960048036038101906104549190612f1a565b610d9e565b6040516104669190613531565b60405180910390f35b34801561047b57600080fd5b5061049660048036038101906104919190612f1a565b610e45565b005b3480156104a457600080fd5b506104bf60048036038101906104ba9190612d21565b611497565b6040516104cc9190613516565b60405180910390f35b3480156104e157600080fd5b506104fc60048036038101906104f79190612f1a565b61152b565b604051610509919061385b565b60405180910390f35b34801561051e57600080fd5b5061053960048036038101906105349190612fa8565b61154e565b6040516105469190613486565b60405180910390f35b60007f780e9d63000000000000000000000000000000000000000000000000000000007bffffffffffffffffffffffffffffffffffffffffffffffffffffffff1916827bffffffffffffffffffffffffffffffffffffffffffffffffffffffff191614806105c257506105c1826115d1565b5b9050919050565b6060600080546105d890613aa0565b80601f016020809104026020016040519081016040528092919081815260200182805461060490613aa0565b80156106515780601f1061062657610100808354040283529160200191610651565b820191906000526020600020905b81548152906001019060200180831161063457829003601f168201915b5050505050905090565b6000610666826116b3565b6106a5576040517f08c379a000000000000000000000000000000000000000000000000000000000815260040161069c90613759565b60405180910390fd5b6004600083815260200190815260200160002060009054906101000a900473ffffffffffffffffffffffffffffffffffffffff169050919050565b60006106eb82610b2a565b90508073ffffffffffffffffffffffffffffffffffffffff168373ffffffffffffffffffffffffffffffffffffffff16141561075c576040517f08c379a0000000000000000000000000000000000000000000000000000000008152600401610753906137b9565b60405180910390fd5b8073ffffffffffffffffffffffffffffffffffffffff1661077b61171f565b73ffffffffffffffffffffffffffffffffffffffff1614806107aa57506107a9816107a461171f565b611497565b5b6107e9576040517f08c379a00000000000000000000000000000000000000000000000000000000081526004016107e0906136d9565b60405180910390fd5b6107f38383611727565b505050565b6000600b600084815260200190815260200160002060010160008373ffffffffffffffffffffffffffffffffffffffff1673ffffffffffffffffffffffffffffffffffffffff16815260200190815260200160002054905092915050565b6000341161086357600080fd5b730d500b1d8e8ef31e21c99d1db9a6444d3adf127073ffffffffffffffffffffffffffffffffffffffff1663d0e30db0346040518263ffffffff1660e01b81526004016000604051808303818588803b1580156108bf57600080fd5b505af11580156108d3573d6000803e3d6000fd5b505050505060006108e4600a6117e0565b90506108f0600a6117ee565b6108fa3382611804565b61092581730d500b1d8e8ef31e21c99d1db9a6444d3adf12706002346109209190613976565b6119de565b600061093c6002346109379190613976565b611b03565b905061095d82737ceb23fd6bc0add59e62ac25578270cff1b9f619836119de565b5050565b6000600880549050905090565b61097f61097961171f565b82611c19565b6109be576040517f08c379a00000000000000000000000000000000000000000000000000000000081526004016109b5906137d9565b60405180910390fd5b6109c9838383611cf7565b505050565b60006109d983610bdc565b8210610a1a576040517f08c379a0000000000000000000000000000000000000000000000000000000008152600401610a11906135f9565b60405180910390fd5b600660008473ffffffffffffffffffffffffffffffffffffffff1673ffffffffffffffffffffffffffffffffffffffff168152602001908152602001600020600083815260200190815260200160002054905092915050565b610a8e83838360405180602001604052806000815250610d3c565b505050565b6000610a9d610961565b8210610ade576040517f08c379a0000000000000000000000000000000000000000000000000000000008152600401610ad5906137f9565b60405180910390fd5b60088281548110610b18577f4e487b7100000000000000000000000000000000000000000000000000000000600052603260045260246000fd5b90600052602060002001549050919050565b6000806002600084815260200190815260200160002060009054906101000a900473ffffffffffffffffffffffffffffffffffffffff169050600073ffffffffffffffffffffffffffffffffffffffff168173ffffffffffffffffffffffffffffffffffffffff161415610bd3576040517f08c379a0000000000000000000000000000000000000000000000000000000008152600401610bca90613719565b60405180910390fd5b80915050919050565b60008073ffffffffffffffffffffffffffffffffffffffff168273ffffffffffffffffffffffffffffffffffffffff161415610c4d576040517f08c379a0000000000000000000000000000000000000000000000000000000008152600401610c44906136f9565b60405180910390fd5b600360008373ffffffffffffffffffffffffffffffffffffffff1673ffffffffffffffffffffffffffffffffffffffff168152602001908152602001600020549050919050565b606060018054610ca390613aa0565b80601f0160208091040260200160405190810160405280929190818152602001828054610ccf90613aa0565b8015610d1c5780601f10610cf157610100808354040283529160200191610d1c565b820191906000526020600020905b815481529060010190602001808311610cff57829003601f168201915b5050505050905090565b610d38610d3161171f565b8383611f5e565b5050565b610d4d610d4761171f565b83611c19565b610d8c576040517f08c379a0000000000000000000000000000000000000000000000000000000008152600401610d83906137d9565b60405180910390fd5b610d98848484846120cb565b50505050565b6060610da9826116b3565b610de8576040517f08c379a0000000000000000000000000000000000000000000000000000000008152600401610ddf90613799565b60405180910390fd5b6000610df2612127565b90506000815111610e125760405180602001604052806000815250610e3d565b80610e1c8461213e565b604051602001610e2d929190613462565b6040516020818303038152906040525b915050919050565b610e4e816116b3565b610e8d576040517f08c379a0000000000000000000000000000000000000000000000000000000008152600401610e8490613819565b60405180910390fd5b3373ffffffffffffffffffffffffffffffffffffffff16610ead82610b2a565b73ffffffffffffffffffffffffffffffffffffffff1614610f03576040517f08c379a0000000000000000000000000000000000000000000000000000000008152600401610efa90613779565b60405180910390fd5b6000600b600083815260200190815260200160002090506110396040518060400160405280600e81526020017f4245464f524520746f6b656e3a2000000000000000000000000000000000000081525060006040518060400160405280600d81526020017f2062616c616e63652069733a200000000000000000000000000000000000000081525084600101600086600001600081548110610fce577f4e487b7100000000000000000000000000000000000000000000000000000000600052603260045260246000fd5b9060005260206000200160009054906101000a900473ffffffffffffffffffffffffffffffffffffffff1673ffffffffffffffffffffffffffffffffffffffff1673ffffffffffffffffffffffffffffffffffffffff168152602001908152602001600020546122eb565b6111586040518060400160405280600e81526020017f4245464f524520746f6b656e3a2000000000000000000000000000000000000081525060016040518060400160405280600d81526020017f2062616c616e63652069733a2000000000000000000000000000000000000000815250846001016000866000016001815481106110ed577f4e487b7100000000000000000000000000000000000000000000000000000000600052603260045260246000fd5b9060005260206000200160009054906101000a900473ffffffffffffffffffffffffffffffffffffffff1673ffffffffffffffffffffffffffffffffffffffff1673ffffffffffffffffffffffffffffffffffffffff168152602001908152602001600020546122eb565b6000816000018381548110611196577f4e487b7100000000000000000000000000000000000000000000000000000000600052603260045260246000fd5b9060005260206000200160009054906101000a900473ffffffffffffffffffffffffffffffffffffffff16905060008260010160008373ffffffffffffffffffffffffffffffffffffffff1673ffffffffffffffffffffffffffffffffffffffff16815260200190815260200160002054905060008111156112e85760008360010160008473ffffffffffffffffffffffffffffffffffffffff1673ffffffffffffffffffffffffffffffffffffffff168152602001908152602001600020819055508173ffffffffffffffffffffffffffffffffffffffff1663a9059cbb33836040518363ffffffff1660e01b81526004016112949291906134ed565b602060405180830381600087803b1580156112ae57600080fd5b505af11580156112c2573d6000803e3d6000fd5b505050506040513d601f19601f820116820180604052508101906112e69190612e9f565b505b60005b83600001805490508110156114905761147d6040518060400160405280600d81526020017f414654455220746f6b656e3a200000000000000000000000000000000000000081525085600001838154811061136f577f4e487b7100000000000000000000000000000000000000000000000000000000600052603260045260246000fd5b9060005260206000200160009054906101000a900473ffffffffffffffffffffffffffffffffffffffff166040518060400160405280600d81526020017f2062616c616e63652069733a2000000000000000000000000000000000000000815250876001016000896000018781548110611412577f4e487b7100000000000000000000000000000000000000000000000000000000600052603260045260246000fd5b9060005260206000200160009054906101000a900473ffffffffffffffffffffffffffffffffffffffff1673ffffffffffffffffffffffffffffffffffffffff1673ffffffffffffffffffffffffffffffffffffffff1681526020019081526020016000205461238d565b808061148890613b03565b9150506112eb565b5050505050565b6000600560008473ffffffffffffffffffffffffffffffffffffffff1673ffffffffffffffffffffffffffffffffffffffff16815260200190815260200160002060008373ffffffffffffffffffffffffffffffffffffffff1673ffffffffffffffffffffffffffffffffffffffff16815260200190815260200160002060009054906101000a900460ff16905092915050565b6000600b6000838152602001908152602001600020600001805490509050919050565b6000600b6000848152602001908152602001600020600001828154811061159e577f4e487b7100000000000000000000000000000000000000000000000000000000600052603260045260246000fd5b9060005260206000200160009054906101000a900473ffffffffffffffffffffffffffffffffffffffff16905092915050565b60007f80ac58cd000000000000000000000000000000000000000000000000000000007bffffffffffffffffffffffffffffffffffffffffffffffffffffffff1916827bffffffffffffffffffffffffffffffffffffffffffffffffffffffff1916148061169c57507f5b5e139f000000000000000000000000000000000000000000000000000000007bffffffffffffffffffffffffffffffffffffffffffffffffffffffff1916827bffffffffffffffffffffffffffffffffffffffffffffffffffffffff1916145b806116ac57506116ab8261242f565b5b9050919050565b60008073ffffffffffffffffffffffffffffffffffffffff166002600084815260200190815260200160002060009054906101000a900473ffffffffffffffffffffffffffffffffffffffff1673ffffffffffffffffffffffffffffffffffffffff1614159050919050565b600033905090565b816004600083815260200190815260200160002060006101000a81548173ffffffffffffffffffffffffffffffffffffffff021916908373ffffffffffffffffffffffffffffffffffffffff160217905550808273ffffffffffffffffffffffffffffffffffffffff1661179a83610b2a565b73ffffffffffffffffffffffffffffffffffffffff167f8c5be1e5ebec7d5bd14f71427d1e84f3dd0314c0f7b2291e5b200ac8c7c3b92560405160405180910390a45050565b600081600001549050919050565b6001816000016000828254019250508190555050565b600073ffffffffffffffffffffffffffffffffffffffff168273ffffffffffffffffffffffffffffffffffffffff161415611874576040517f08c379a000000000000000000000000000000000000000000000000000000000815260040161186b90613739565b60405180910390fd5b61187d816116b3565b156118bd576040517f08c379a00000000000000000000000000000000000000000000000000000000081526004016118b490613659565b60405180910390fd5b6118c960008383612499565b6001600360008473ffffffffffffffffffffffffffffffffffffffff1673ffffffffffffffffffffffffffffffffffffffff16815260200190815260200160002060008282546119199190613920565b92505081905550816002600083815260200190815260200160002060006101000a81548173ffffffffffffffffffffffffffffffffffffffff021916908373ffffffffffffffffffffffffffffffffffffffff160217905550808273ffffffffffffffffffffffffffffffffffffffff16600073ffffffffffffffffffffffffffffffffffffffff167fddf252ad1be2c89b69c2b068fc378daa952ba7f163c4a11628f55a4df523b3ef60405160405180910390a46119da600083836125ad565b5050565b6000600b6000858152602001908152602001600020905060008160010160008573ffffffffffffffffffffffffffffffffffffffff1673ffffffffffffffffffffffffffffffffffffffff168152602001908152602001600020541415611aa55780600001839080600181540180825580915050600190039060005260206000200160009091909190916101000a81548173ffffffffffffffffffffffffffffffffffffffff021916908373ffffffffffffffffffffffffffffffffffffffff1602179055505b818160010160008573ffffffffffffffffffffffffffffffffffffffff1673ffffffffffffffffffffffffffffffffffffffff1681526020019081526020016000206000828254611af69190613920565b9250508190555050505050565b6000730d500b1d8e8ef31e21c99d1db9a6444d3adf127073ffffffffffffffffffffffffffffffffffffffff1663095ea7b373e592427a0aece92de3edee1f18e0157c05861564846040518363ffffffff1660e01b8152600401611b689291906134ed565b602060405180830381600087803b158015611b8257600080fd5b505af1158015611b96573d6000803e3d6000fd5b505050506040513d601f19601f82011682018060405250810190611bba9190612e9f565b50611c12730d500b1d8e8ef31e21c99d1db9a6444d3adf12706101f4737ceb23fd6bc0add59e62ac25578270cff1b9f619604051602001611bfd93929190613425565b604051602081830303815290604052836125b2565b9050919050565b6000611c24826116b3565b611c63576040517f08c379a0000000000000000000000000000000000000000000000000000000008152600401611c5a906136b9565b60405180910390fd5b6000611c6e83610b2a565b90508073ffffffffffffffffffffffffffffffffffffffff168473ffffffffffffffffffffffffffffffffffffffff161480611cb05750611caf8185611497565b5b80611cee57508373ffffffffffffffffffffffffffffffffffffffff16611cd68461065b565b73ffffffffffffffffffffffffffffffffffffffff16145b91505092915050565b8273ffffffffffffffffffffffffffffffffffffffff16611d1782610b2a565b73ffffffffffffffffffffffffffffffffffffffff1614611d6d576040517f08c379a0000000000000000000000000000000000000000000000000000000008152600401611d6490613639565b60405180910390fd5b600073ffffffffffffffffffffffffffffffffffffffff168273ffffffffffffffffffffffffffffffffffffffff161415611ddd576040517f08c379a0000000000000000000000000000000000000000000000000000000008152600401611dd490613679565b60405180910390fd5b611de8838383612499565b611df3600082611727565b6001600360008573ffffffffffffffffffffffffffffffffffffffff1673ffffffffffffffffffffffffffffffffffffffff1681526020019081526020016000206000828254611e4391906139a7565b925050819055506001600360008473ffffffffffffffffffffffffffffffffffffffff1673ffffffffffffffffffffffffffffffffffffffff1681526020019081526020016000206000828254611e9a9190613920565b92505081905550816002600083815260200190815260200160002060006101000a81548173ffffffffffffffffffffffffffffffffffffffff021916908373ffffffffffffffffffffffffffffffffffffffff160217905550808273ffffffffffffffffffffffffffffffffffffffff168473ffffffffffffffffffffffffffffffffffffffff167fddf252ad1be2c89b69c2b068fc378daa952ba7f163c4a11628f55a4df523b3ef60405160405180910390a4611f598383836125ad565b505050565b8173ffffffffffffffffffffffffffffffffffffffff168373ffffffffffffffffffffffffffffffffffffffff161415611fcd576040517f08c379a0000000000000000000000000000000000000000000000000000000008152600401611fc490613699565b60405180910390fd5b80600560008573ffffffffffffffffffffffffffffffffffffffff1673ffffffffffffffffffffffffffffffffffffffff16815260200190815260200160002060008473ffffffffffffffffffffffffffffffffffffffff1673ffffffffffffffffffffffffffffffffffffffff16815260200190815260200160002060006101000a81548160ff0219169083151502179055508173ffffffffffffffffffffffffffffffffffffffff168373ffffffffffffffffffffffffffffffffffffffff167f17307eab39ab6107e8899845ad3d59bd9653f200f220920489ca2b5937696c31836040516120be9190613516565b60405180910390a3505050565b6120d6848484611cf7565b6120e28484848461269d565b612121576040517f08c379a000000000000000000000000000000000000000000000000000000000815260040161211890613619565b60405180910390fd5b50505050565b606060405180602001604052806000815250905090565b60606000821415612186576040518060400160405280600181526020017f300000000000000000000000000000000000000000000000000000000000000081525090506122e6565b600082905060005b600082146121b85780806121a190613b03565b915050600a826121b19190613976565b915061218e565b60008167ffffffffffffffff8111156121fa577f4e487b7100000000000000000000000000000000000000000000000000000000600052604160045260246000fd5b6040519080825280601f01601f19166020018201604052801561222c5781602001600182028036833780820191505090505b5090505b600085146122df5760018261224591906139a7565b9150600a856122549190613b82565b60306122609190613920565b60f81b81838151811061229c577f4e487b7100000000000000000000000000000000000000000000000000000000600052603260045260246000fd5b60200101907effffffffffffffffffffffffffffffffffffffffffffffffffffffffffffff1916908160001a905350600a856122d89190613976565b9450612230565b8093505050505b919050565b6123878484848460405160240161230594939291906135a6565b6040516020818303038152906040527fa0c4b225000000000000000000000000000000000000000000000000000000007bffffffffffffffffffffffffffffffffffffffffffffffffffffffff19166020820180517bffffffffffffffffffffffffffffffffffffffffffffffffffffffff8381831617835250505050612834565b50505050565b612429848484846040516024016123a79493929190613553565b6040516020818303038152906040527f8f624be9000000000000000000000000000000000000000000000000000000007bffffffffffffffffffffffffffffffffffffffffffffffffffffffff19166020820180517bffffffffffffffffffffffffffffffffffffffffffffffffffffffff8381831617835250505050612834565b50505050565b60007f01ffc9a7000000000000000000000000000000000000000000000000000000007bffffffffffffffffffffffffffffffffffffffffffffffffffffffff1916827bffffffffffffffffffffffffffffffffffffffffffffffffffffffff1916149050919050565b6124a483838361285d565b600073ffffffffffffffffffffffffffffffffffffffff168373ffffffffffffffffffffffffffffffffffffffff1614156124e7576124e281612862565b612526565b8173ffffffffffffffffffffffffffffffffffffffff168373ffffffffffffffffffffffffffffffffffffffff16146125255761252483826128ab565b5b5b600073ffffffffffffffffffffffffffffffffffffffff168273ffffffffffffffffffffffffffffffffffffffff1614156125695761256481612a18565b6125a8565b8273ffffffffffffffffffffffffffffffffffffffff168273ffffffffffffffffffffffffffffffffffffffff16146125a7576125a68282612b5b565b5b5b505050565b505050565b6000806040518060a001604052808581526020013073ffffffffffffffffffffffffffffffffffffffff1681526020014281526020018481526020016000815250905073e592427a0aece92de3edee1f18e0157c0586156473ffffffffffffffffffffffffffffffffffffffff1663c04b8d59826040518263ffffffff1660e01b81526004016126429190613839565b602060405180830381600087803b15801561265c57600080fd5b505af1158015612670573d6000803e3d6000fd5b505050506040513d601f19601f820116820180604052508101906126949190612f43565b91505092915050565b60006126be8473ffffffffffffffffffffffffffffffffffffffff16612bda565b15612827578373ffffffffffffffffffffffffffffffffffffffff1663150b7a026126e761171f565b8786866040518563ffffffff1660e01b815260040161270994939291906134a1565b602060405180830381600087803b15801561272357600080fd5b505af192505050801561275457506040513d601f19601f820116820180604052508101906127519190612ef1565b60015b6127d7573d8060008114612784576040519150601f19603f3d011682016040523d82523d6000602084013e612789565b606091505b506000815114156127cf576040517f08c379a00000000000000000000000000000000000000000000000000000000081526004016127c690613619565b60405180910390fd5b805181602001fd5b63150b7a0260e01b7bffffffffffffffffffffffffffffffffffffffffffffffffffffffff1916817bffffffffffffffffffffffffffffffffffffffffffffffffffffffff19161491505061282c565b600190505b949350505050565b60008151905060006a636f6e736f6c652e6c6f679050602083016000808483855afa5050505050565b505050565b6008805490506009600083815260200190815260200160002081905550600881908060018154018082558091505060019003906000526020600020016000909190919091505550565b600060016128b884610bdc565b6128c291906139a7565b90506000600760008481526020019081526020016000205490508181146129a7576000600660008673ffffffffffffffffffffffffffffffffffffffff1673ffffffffffffffffffffffffffffffffffffffff168152602001908152602001600020600084815260200190815260200160002054905080600660008773ffffffffffffffffffffffffffffffffffffffff1673ffffffffffffffffffffffffffffffffffffffff168152602001908152602001600020600084815260200190815260200160002081905550816007600083815260200190815260200160002081905550505b6007600084815260200190815260200160002060009055600660008573ffffffffffffffffffffffffffffffffffffffff1673ffffffffffffffffffffffffffffffffffffffff16815260200190815260200160002060008381526020019081526020016000206000905550505050565b60006001600880549050612a2c91906139a7565b9050600060096000848152602001908152602001600020549050600060088381548110612a82577f4e487b7100000000000000000000000000000000000000000000000000000000600052603260045260246000fd5b906000526020600020015490508060088381548110612aca577f4e487b7100000000000000000000000000000000000000000000000000000000600052603260045260246000fd5b906000526020600020018190555081600960008381526020019081526020016000208190555060096000858152602001908152602001600020600090556008805480612b3f577f4e487b7100000000000000000000000000000000000000000000000000000000600052603160045260246000fd5b6001900381819060005260206000200160009055905550505050565b6000612b6683610bdc565b905081600660008573ffffffffffffffffffffffffffffffffffffffff1673ffffffffffffffffffffffffffffffffffffffff168152602001908152602001600020600083815260200190815260200160002081905550806007600084815260200190815260200160002081905550505050565b6000808273ffffffffffffffffffffffffffffffffffffffff163b119050919050565b6000612c10612c0b8461389b565b613876565b905082815260208101848484011115612c2857600080fd5b612c33848285613a5e565b509392505050565b600081359050612c4a8161416a565b92915050565b600081359050612c5f81614181565b92915050565b600081519050612c7481614181565b92915050565b600081359050612c8981614198565b92915050565b600081519050612c9e81614198565b92915050565b600082601f830112612cb557600080fd5b8135612cc5848260208601612bfd565b91505092915050565b600081359050612cdd816141af565b92915050565b600081519050612cf2816141af565b92915050565b600060208284031215612d0a57600080fd5b6000612d1884828501612c3b565b91505092915050565b60008060408385031215612d3457600080fd5b6000612d4285828601612c3b565b9250506020612d5385828601612c3b565b9150509250929050565b600080600060608486031215612d7257600080fd5b6000612d8086828701612c3b565b9350506020612d9186828701612c3b565b9250506040612da286828701612cce565b9150509250925092565b60008060008060808587031215612dc257600080fd5b6000612dd087828801612c3b565b9450506020612de187828801612c3b565b9350506040612df287828801612cce565b925050606085013567ffffffffffffffff811115612e0f57600080fd5b612e1b87828801612ca4565b91505092959194509250565b60008060408385031215612e3a57600080fd5b6000612e4885828601612c3b565b9250506020612e5985828601612c50565b9150509250929050565b60008060408385031215612e7657600080fd5b6000612e8485828601612c3b565b9250506020612e9585828601612cce565b9150509250929050565b600060208284031215612eb157600080fd5b6000612ebf84828501612c65565b91505092915050565b600060208284031215612eda57600080fd5b6000612ee884828501612c7a565b91505092915050565b600060208284031215612f0357600080fd5b6000612f1184828501612c8f565b91505092915050565b600060208284031215612f2c57600080fd5b6000612f3a84828501612cce565b91505092915050565b600060208284031215612f5557600080fd5b6000612f6384828501612ce3565b91505092915050565b60008060408385031215612f7f57600080fd5b6000612f8d85828601612cce565b9250506020612f9e85828601612c3b565b9150509250929050565b60008060408385031215612fbb57600080fd5b6000612fc985828601612cce565b9250506020612fda85828601612cce565b9150509250929050565b612fed816139db565b82525050565b612ffc816139db565b82525050565b61301361300e826139db565b613b4c565b82525050565b613022816139ed565b82525050565b6000613033826138cc565b61303d81856138e2565b935061304d818560208601613a6d565b61305681613c6f565b840191505092915050565b600061306c826138cc565b61307681856138f3565b9350613086818560208601613a6d565b61308f81613c6f565b840191505092915050565b60006130a5826138d7565b6130af8185613904565b93506130bf818560208601613a6d565b6130c881613c6f565b840191505092915050565b60006130de826138d7565b6130e88185613915565b93506130f8818560208601613a6d565b80840191505092915050565b6000613111602b83613904565b915061311c82613c9a565b604082019050919050565b6000613134603283613904565b915061313f82613ce9565b604082019050919050565b6000613157602583613904565b915061316282613d38565b604082019050919050565b600061317a601c83613904565b915061318582613d87565b602082019050919050565b600061319d602483613904565b91506131a882613db0565b604082019050919050565b60006131c0601983613904565b91506131cb82613dff565b602082019050919050565b60006131e3602c83613904565b91506131ee82613e28565b604082019050919050565b6000613206603883613904565b915061321182613e77565b604082019050919050565b6000613229602a83613904565b915061323482613ec6565b604082019050919050565b600061324c602983613904565b915061325782613f15565b604082019050919050565b600061326f602083613904565b915061327a82613f64565b602082019050919050565b6000613292602c83613904565b915061329d82613f8d565b604082019050919050565b60006132b5600b83613904565b91506132c082613fdc565b602082019050919050565b60006132d8602f83613904565b91506132e382614005565b604082019050919050565b60006132fb602183613904565b915061330682614054565b604082019050919050565b600061331e603183613904565b9150613329826140a3565b604082019050919050565b6000613341602c83613904565b915061334c826140f2565b604082019050919050565b6000613364601483613904565b915061336f82614141565b602082019050919050565b600060a08301600083015184820360008601526133978282613028565b91505060208301516133ac6020860182612fe4565b5060408301516133bf6040860182613407565b5060608301516133d26060860182613407565b5060808301516133e56080860182613407565b508091505092915050565b6134016133fc82613a45565b613b70565b82525050565b61341081613a54565b82525050565b61341f81613a54565b82525050565b60006134318286613002565b60148201915061344182856133f0565b6003820191506134518284613002565b601482019150819050949350505050565b600061346e82856130d3565b915061347a82846130d3565b91508190509392505050565b600060208201905061349b6000830184612ff3565b92915050565b60006080820190506134b66000830187612ff3565b6134c36020830186612ff3565b6134d06040830185613416565b81810360608301526134e28184613061565b905095945050505050565b60006040820190506135026000830185612ff3565b61350f6020830184613416565b9392505050565b600060208201905061352b6000830184613019565b92915050565b6000602082019050818103600083015261354b818461309a565b905092915050565b6000608082019050818103600083015261356d818761309a565b905061357c6020830186612ff3565b818103604083015261358e818561309a565b905061359d6060830184613416565b95945050505050565b600060808201905081810360008301526135c0818761309a565b90506135cf6020830186613416565b81810360408301526135e1818561309a565b90506135f06060830184613416565b95945050505050565b6000602082019050818103600083015261361281613104565b9050919050565b6000602082019050818103600083015261363281613127565b9050919050565b600060208201905081810360008301526136528161314a565b9050919050565b600060208201905081810360008301526136728161316d565b9050919050565b6000602082019050818103600083015261369281613190565b9050919050565b600060208201905081810360008301526136b2816131b3565b9050919050565b600060208201905081810360008301526136d2816131d6565b9050919050565b600060208201905081810360008301526136f2816131f9565b9050919050565b600060208201905081810360008301526137128161321c565b9050919050565b600060208201905081810360008301526137328161323f565b9050919050565b6000602082019050818103600083015261375281613262565b9050919050565b6000602082019050818103600083015261377281613285565b9050919050565b60006020820190508181036000830152613792816132a8565b9050919050565b600060208201905081810360008301526137b2816132cb565b9050919050565b600060208201905081810360008301526137d2816132ee565b9050919050565b600060208201905081810360008301526137f281613311565b9050919050565b6000602082019050818103600083015261381281613334565b9050919050565b6000602082019050818103600083015261383281613357565b9050919050565b60006020820190508181036000830152613853818461337a565b905092915050565b60006020820190506138706000830184613416565b92915050565b6000613880613891565b905061388c8282613ad2565b919050565b6000604051905090565b600067ffffffffffffffff8211156138b6576138b5613c40565b5b6138bf82613c6f565b9050602081019050919050565b600081519050919050565b600081519050919050565b600082825260208201905092915050565b600082825260208201905092915050565b600082825260208201905092915050565b600081905092915050565b600061392b82613a54565b915061393683613a54565b9250827fffffffffffffffffffffffffffffffffffffffffffffffffffffffffffffffff0382111561396b5761396a613bb3565b5b828201905092915050565b600061398182613a54565b915061398c83613a54565b92508261399c5761399b613be2565b5b828204905092915050565b60006139b282613a54565b91506139bd83613a54565b9250828210156139d0576139cf613bb3565b5b828203905092915050565b60006139e682613a25565b9050919050565b60008115159050919050565b60007fffffffff0000000000000000000000000000000000000000000000000000000082169050919050565b600073ffffffffffffffffffffffffffffffffffffffff82169050919050565b600062ffffff82169050919050565b6000819050919050565b82818337600083830152505050565b60005b83811015613a8b578082015181840152602081019050613a70565b83811115613a9a576000848401525b50505050565b60006002820490506001821680613ab857607f821691505b60208210811415613acc57613acb613c11565b5b50919050565b613adb82613c6f565b810181811067ffffffffffffffff82111715613afa57613af9613c40565b5b80604052505050565b6000613b0e82613a54565b91507fffffffffffffffffffffffffffffffffffffffffffffffffffffffffffffffff821415613b4157613b40613bb3565b5b600182019050919050565b6000613b5782613b5e565b9050919050565b6000613b6982613c8d565b9050919050565b6000613b7b82613c80565b9050919050565b6000613b8d82613a54565b9150613b9883613a54565b925082613ba857613ba7613be2565b5b828206905092915050565b7f4e487b7100000000000000000000000000000000000000000000000000000000600052601160045260246000fd5b7f4e487b7100000000000000000000000000000000000000000000000000000000600052601260045260246000fd5b7f4e487b7100000000000000000000000000000000000000000000000000000000600052602260045260246000fd5b7f4e487b7100000000000000000000000000000000000000000000000000000000600052604160045260246000fd5b6000601f19601f8301169050919050565b60008160e81b9050919050565b60008160601b9050919050565b7f455243373231456e756d657261626c653a206f776e657220696e646578206f7560008201527f74206f6620626f756e6473000000000000000000000000000000000000000000602082015250565b7f4552433732313a207472616e7366657220746f206e6f6e20455243373231526560008201527f63656976657220696d706c656d656e7465720000000000000000000000000000602082015250565b7f4552433732313a207472616e736665722066726f6d20696e636f72726563742060008201527f6f776e6572000000000000000000000000000000000000000000000000000000602082015250565b7f4552433732313a20746f6b656e20616c7265616479206d696e74656400000000600082015250565b7f4552433732313a207472616e7366657220746f20746865207a65726f2061646460008201527f7265737300000000000000000000000000000000000000000000000000000000602082015250565b7f4552433732313a20617070726f766520746f2063616c6c657200000000000000600082015250565b7f4552433732313a206f70657261746f7220717565727920666f72206e6f6e657860008201527f697374656e7420746f6b656e0000000000000000000000000000000000000000602082015250565b7f4552433732313a20617070726f76652063616c6c6572206973206e6f74206f7760008201527f6e6572206e6f7220617070726f76656420666f7220616c6c0000000000000000602082015250565b7f4552433732313a2062616c616e636520717565727920666f7220746865207a6560008201527f726f206164647265737300000000000000000000000000000000000000000000602082015250565b7f4552433732313a206f776e657220717565727920666f72206e6f6e657869737460008201527f656e7420746f6b656e0000000000000000000000000000000000000000000000602082015250565b7f4552433732313a206d696e7420746f20746865207a65726f2061646472657373600082015250565b7f4552433732313a20617070726f76656420717565727920666f72206e6f6e657860008201527f697374656e7420746f6b656e0000000000000000000000000000000000000000602082015250565b7f4e6f7420616c6c6f776564000000000000000000000000000000000000000000600082015250565b7f4552433732314d657461646174613a2055524920717565727920666f72206e6f60008201527f6e6578697374656e7420746f6b656e0000000000000000000000000000000000602082015250565b7f4552433732313a20617070726f76616c20746f2063757272656e74206f776e6560008201527f7200000000000000000000000000000000000000000000000000000000000000602082015250565b7f4552433732313a207472616e736665722063616c6c6572206973206e6f74206f60008201527f776e6572206e6f7220617070726f766564000000000000000000000000000000602082015250565b7f455243373231456e756d657261626c653a20676c6f62616c20696e646578206f60008201527f7574206f6620626f756e64730000000000000000000000000000000000000000602082015250565b7f746f6b656e20646f6573206e6f74206578697374000000000000000000000000600082015250565b614173816139db565b811461417e57600080fd5b50565b61418a816139ed565b811461419557600080fd5b50565b6141a1816139f9565b81146141ac57600080fd5b50565b6141b881613a54565b81146141c357600080fd5b5056fea2646970667358221220df2c974162736a29b40e73b60cf548479852ed5d3fc461555e8a6a05b18adc9a64736f6c63430008040033",
  "linkReferences": {},
  "deployedLinkReferences": {}
}