{
  "_format": "hh-sol-artifact-1",
  "contractName": "GoodieBag",
  "sourceName": "contracts/GoodieBag.sol",
  "abi": [
    {
      "inputs": [],
      "stateMutability": "nonpayable",
      "type": "constructor"
    },
    {
      "anonymous": false,
      "inputs": [
        {
          "indexed": true,
          "internalType": "address",
          "name": "owner",
          "type": "address"
        },
        {
          "indexed": true,
          "internalType": "address",
          "name": "approved",
          "type": "address"
        },
        {
          "indexed": true,
          "internalType": "uint256",
          "name": "tokenId",
          "type": "uint256"
        }
      ],
      "name": "Approval",
      "type": "event"
    },
    {
      "anonymous": false,
      "inputs": [
        {
          "indexed": true,
          "internalType": "address",
          "name": "owner",
          "type": "address"
        },
        {
          "indexed": true,
          "internalType": "address",
          "name": "operator",
          "type": "address"
        },
        {
          "indexed": false,
          "internalType": "bool",
          "name": "approved",
          "type": "bool"
        }
      ],
      "name": "ApprovalForAll",
      "type": "event"
    },
    {
      "anonymous": false,
      "inputs": [
        {
          "indexed": true,
          "internalType": "address",
          "name": "from",
          "type": "address"
        },
        {
          "indexed": true,
          "internalType": "address",
          "name": "to",
          "type": "address"
        },
        {
          "indexed": true,
          "internalType": "uint256",
          "name": "tokenId",
          "type": "uint256"
        }
      ],
      "name": "Transfer",
      "type": "event"
    },
    {
      "inputs": [
        {
          "internalType": "address",
          "name": "to",
          "type": "address"
        },
        {
          "internalType": "uint256",
          "name": "tokenId",
          "type": "uint256"
        }
      ],
      "name": "approve",
      "outputs": [],
      "stateMutability": "nonpayable",
      "type": "function"
    },
    {
      "inputs": [
        {
          "internalType": "address",
          "name": "owner",
          "type": "address"
        }
      ],
      "name": "balanceOf",
      "outputs": [
        {
          "internalType": "uint256",
          "name": "",
          "type": "uint256"
        }
      ],
      "stateMutability": "view",
      "type": "function"
    },
    {
      "inputs": [
        {
          "internalType": "uint256",
          "name": "tokenId",
          "type": "uint256"
        }
      ],
      "name": "getApproved",
      "outputs": [
        {
          "internalType": "address",
          "name": "",
          "type": "address"
        }
      ],
      "stateMutability": "view",
      "type": "function"
    },
    {
      "inputs": [
        {
          "internalType": "uint256",
          "name": "nft",
          "type": "uint256"
        },
        {
          "internalType": "uint256",
          "name": "index",
          "type": "uint256"
        }
      ],
      "name": "getNFTTokenAddress",
      "outputs": [
        {
          "internalType": "address",
          "name": "",
          "type": "address"
        }
      ],
      "stateMutability": "view",
      "type": "function"
    },
    {
      "inputs": [
        {
          "internalType": "uint256",
          "name": "nft",
          "type": "uint256"
        },
        {
          "internalType": "address",
          "name": "tokenAddress",
          "type": "address"
        }
      ],
      "name": "getNFTTokenBalance",
      "outputs": [
        {
          "internalType": "uint256",
          "name": "",
          "type": "uint256"
        }
      ],
      "stateMutability": "view",
      "type": "function"
    },
    {
      "inputs": [
        {
          "internalType": "uint256",
          "name": "nft",
          "type": "uint256"
        }
      ],
      "name": "getNFTTokenCount",
      "outputs": [
        {
          "internalType": "uint256",
          "name": "",
          "type": "uint256"
        }
      ],
      "stateMutability": "view",
      "type": "function"
    },
    {
      "inputs": [
        {
          "internalType": "address",
          "name": "owner",
          "type": "address"
        },
        {
          "internalType": "address",
          "name": "operator",
          "type": "address"
        }
      ],
      "name": "isApprovedForAll",
      "outputs": [
        {
          "internalType": "bool",
          "name": "",
          "type": "bool"
        }
      ],
      "stateMutability": "view",
      "type": "function"
    },
    {
      "inputs": [],
      "name": "mint",
      "outputs": [],
      "stateMutability": "payable",
      "type": "function"
    },
    {
      "inputs": [],
      "name": "name",
      "outputs": [
        {
          "internalType": "string",
          "name": "",
          "type": "string"
        }
      ],
      "stateMutability": "view",
      "type": "function"
    },
    {
      "inputs": [
        {
          "internalType": "uint256",
          "name": "tokenId",
          "type": "uint256"
        }
      ],
      "name": "ownerOf",
      "outputs": [
        {
          "internalType": "address",
          "name": "",
          "type": "address"
        }
      ],
      "stateMutability": "view",
      "type": "function"
    },
    {
      "inputs": [
        {
          "internalType": "uint256",
          "name": "token",
          "type": "uint256"
        }
      ],
      "name": "redeem",
      "outputs": [],
      "stateMutability": "nonpayable",
      "type": "function"
    },
    {
      "inputs": [
        {
          "internalType": "address",
          "name": "from",
          "type": "address"
        },
        {
          "internalType": "address",
          "name": "to",
          "type": "address"
        },
        {
          "internalType": "uint256",
          "name": "tokenId",
          "type": "uint256"
        }
      ],
      "name": "safeTransferFrom",
      "outputs": [],
      "stateMutability": "nonpayable",
      "type": "function"
    },
    {
      "inputs": [
        {
          "internalType": "address",
          "name": "from",
          "type": "address"
        },
        {
          "internalType": "address",
          "name": "to",
          "type": "address"
        },
        {
          "internalType": "uint256",
          "name": "tokenId",
          "type": "uint256"
        },
        {
          "internalType": "bytes",
          "name": "_data",
          "type": "bytes"
        }
      ],
      "name": "safeTransferFrom",
      "outputs": [],
      "stateMutability": "nonpayable",
      "type": "function"
    },
    {
      "inputs": [
        {
          "internalType": "address",
          "name": "operator",
          "type": "address"
        },
        {
          "internalType": "bool",
          "name": "approved",
          "type": "bool"
        }
      ],
      "name": "setApprovalForAll",
      "outputs": [],
      "stateMutability": "nonpayable",
      "type": "function"
    },
    {
      "inputs": [
        {
          "internalType": "bytes4",
          "name": "interfaceId",
          "type": "bytes4"
        }
      ],
      "name": "supportsInterface",
      "outputs": [
        {
          "internalType": "bool",
          "name": "",
          "type": "bool"
        }
      ],
      "stateMutability": "view",
      "type": "function"
    },
    {
      "inputs": [],
      "name": "symbol",
      "outputs": [
        {
          "internalType": "string",
          "name": "",
          "type": "string"
        }
      ],
      "stateMutability": "view",
      "type": "function"
    },
    {
      "inputs": [
        {
          "internalType": "uint256",
          "name": "index",
          "type": "uint256"
        }
      ],
      "name": "tokenByIndex",
      "outputs": [
        {
          "internalType": "uint256",
          "name": "",
          "type": "uint256"
        }
      ],
      "stateMutability": "view",
      "type": "function"
    },
    {
      "inputs": [
        {
          "internalType": "address",
          "name": "owner",
          "type": "address"
        },
        {
          "internalType": "uint256",
          "name": "index",
          "type": "uint256"
        }
      ],
      "name": "tokenOfOwnerByIndex",
      "outputs": [
        {
          "internalType": "uint256",
          "name": "",
          "type": "uint256"
        }
      ],
      "stateMutability": "view",
      "type": "function"
    },
    {
      "inputs": [
        {
          "internalType": "uint256",
          "name": "tokenId",
          "type": "uint256"
        }
      ],
      "name": "tokenURI",
      "outputs": [
        {
          "internalType": "string",
          "name": "",
          "type": "string"
        }
      ],
      "stateMutability": "view",
      "type": "function"
    },
    {
      "inputs": [],
      "name": "totalSupply",
      "outputs": [
        {
          "internalType": "uint256",
          "name": "",
          "type": "uint256"
        }
      ],
      "stateMutability": "view",
      "type": "function"
    },
    {
      "inputs": [
        {
          "internalType": "address",
          "name": "from",
          "type": "address"
        },
        {
          "internalType": "address",
          "name": "to",
          "type": "address"
        },
        {
          "internalType": "uint256",
          "name": "tokenId",
          "type": "uint256"
        }
      ],
      "name": "transferFrom",
      "outputs": [],
      "stateMutability": "nonpayable",
      "type": "function"
    }
  ],
  "bytecode": "0x60806040523480156200001157600080fd5b506040518060400160405280600981526020017f476f6f64696542616700000000000000000000000000000000000000000000008152506040518060400160405280600481526020017f4742616700000000000000000000000000000000000000000000000000000000815250816000908051906020019062000096929190620000b8565b508060019080519060200190620000af929190620000b8565b505050620001cd565b828054620000c69062000168565b90600052602060002090601f016020900481019282620000ea576000855562000136565b82601f106200010557805160ff191683800117855562000136565b8280016001018555821562000136579182015b828111156200013557825182559160200191906001019062000118565b5b50905062000145919062000149565b5090565b5b80821115620001645760008160009055506001016200014a565b5090565b600060028204905060018216806200018157607f821691505b602082108114156200019857620001976200019e565b5b50919050565b7f4e487b7100000000000000000000000000000000000000000000000000000000600052602260045260246000fd5b613b8680620001dd6000396000f3fe60806040526004361061012a5760003560e01c80634f6ccce7116100ab578063b88d4fde1161006f578063b88d4fde14610409578063c87b56dd14610432578063db006a751461046f578063e985e9c514610498578063e9fee711146104d5578063eb979439146105125761012a565b80634f6ccce7146102fe5780636352211e1461033b57806370a082311461037857806395d89b41146103b5578063a22cb465146103e05761012a565b80631249c58b116100f25780631249c58b1461023a57806318160ddd1461024457806323b872dd1461026f5780632f745c591461029857806342842e0e146102d55761012a565b806301ffc9a71461012f57806306fdde031461016c578063081812fc14610197578063095ea7b3146101d457806310c6d8ef146101fd575b600080fd5b34801561013b57600080fd5b5061015660048036038101906101519190612964565b61054f565b6040516101639190612f8f565b60405180910390f35b34801561017857600080fd5b506101816105c9565b60405161018e9190612faa565b60405180910390f35b3480156101a357600080fd5b506101be60048036038101906101b991906129b6565b61065b565b6040516101cb9190612eff565b60405180910390f35b3480156101e057600080fd5b506101fb60048036038101906101f691906128ff565b6106e0565b005b34801561020957600080fd5b50610224600480360381019061021f9190612a08565b6107f8565b604051610231919061320e565b60405180910390f35b610242610856565b005b34801561025057600080fd5b50610259610961565b604051610266919061320e565b60405180910390f35b34801561027b57600080fd5b50610296600480360381019061029191906127f9565b61096e565b005b3480156102a457600080fd5b506102bf60048036038101906102ba91906128ff565b6109ce565b6040516102cc919061320e565b60405180910390f35b3480156102e157600080fd5b506102fc60048036038101906102f791906127f9565b610a73565b005b34801561030a57600080fd5b50610325600480360381019061032091906129b6565b610a93565b604051610332919061320e565b60405180910390f35b34801561034757600080fd5b50610362600480360381019061035d91906129b6565b610b2a565b60405161036f9190612eff565b60405180910390f35b34801561038457600080fd5b5061039f600480360381019061039a9190612794565b610bdc565b6040516103ac919061320e565b60405180910390f35b3480156103c157600080fd5b506103ca610c94565b6040516103d79190612faa565b60405180910390f35b3480156103ec57600080fd5b50610407600480360381019061040291906128c3565b610d26565b005b34801561041557600080fd5b50610430600480360381019061042b9190612848565b610d3c565b005b34801561043e57600080fd5b50610459600480360381019061045491906129b6565b610d9e565b6040516104669190612faa565b60405180910390f35b34801561047b57600080fd5b50610496600480360381019061049191906129b6565b610e45565b005b3480156104a457600080fd5b506104bf60048036038101906104ba91906127bd565b6110a0565b6040516104cc9190612f8f565b60405180910390f35b3480156104e157600080fd5b506104fc60048036038101906104f791906129b6565b611134565b604051610509919061320e565b60405180910390f35b34801561051e57600080fd5b5061053960048036038101906105349190612a44565b611157565b6040516105469190612eff565b60405180910390f35b60007f780e9d63000000000000000000000000000000000000000000000000000000007bffffffffffffffffffffffffffffffffffffffffffffffffffffffff1916827bffffffffffffffffffffffffffffffffffffffffffffffffffffffff191614806105c257506105c1826111da565b5b9050919050565b6060600080546105d890613453565b80601f016020809104026020016040519081016040528092919081815260200182805461060490613453565b80156106515780601f1061062657610100808354040283529160200191610651565b820191906000526020600020905b81548152906001019060200180831161063457829003601f168201915b5050505050905090565b6000610666826112bc565b6106a5576040517f08c379a000000000000000000000000000000000000000000000000000000000815260040161069c9061312c565b60405180910390fd5b6004600083815260200190815260200160002060009054906101000a900473ffffffffffffffffffffffffffffffffffffffff169050919050565b60006106eb82610b2a565b90508073ffffffffffffffffffffffffffffffffffffffff168373ffffffffffffffffffffffffffffffffffffffff16141561075c576040517f08c379a00000000000000000000000000000000000000000000000000000000081526004016107539061318c565b60405180910390fd5b8073ffffffffffffffffffffffffffffffffffffffff1661077b611328565b73ffffffffffffffffffffffffffffffffffffffff1614806107aa57506107a9816107a4611328565b6110a0565b5b6107e9576040517f08c379a00000000000000000000000000000000000000000000000000000000081526004016107e0906130ac565b60405180910390fd5b6107f38383611330565b505050565b6000600b600084815260200190815260200160002060010160008373ffffffffffffffffffffffffffffffffffffffff1673ffffffffffffffffffffffffffffffffffffffff16815260200190815260200160002054905092915050565b6000341161086357600080fd5b730d500b1d8e8ef31e21c99d1db9a6444d3adf127073ffffffffffffffffffffffffffffffffffffffff1663d0e30db0346040518263ffffffff1660e01b81526004016000604051808303818588803b1580156108bf57600080fd5b505af11580156108d3573d6000803e3d6000fd5b505050505060006108e4600a6113e9565b90506108f0600a6113f7565b6108fa338261140d565b61092581730d500b1d8e8ef31e21c99d1db9a6444d3adf12706002346109209190613329565b6115e7565b600061093c6002346109379190613329565b61170c565b905061095d82737ceb23fd6bc0add59e62ac25578270cff1b9f619836115e7565b5050565b6000600880549050905090565b61097f610979611328565b82611822565b6109be576040517f08c379a00000000000000000000000000000000000000000000000000000000081526004016109b5906131ac565b60405180910390fd5b6109c9838383611900565b505050565b60006109d983610bdc565b8210610a1a576040517f08c379a0000000000000000000000000000000000000000000000000000000008152600401610a1190612fcc565b60405180910390fd5b600660008473ffffffffffffffffffffffffffffffffffffffff1673ffffffffffffffffffffffffffffffffffffffff168152602001908152602001600020600083815260200190815260200160002054905092915050565b610a8e83838360405180602001604052806000815250610d3c565b505050565b6000610a9d610961565b8210610ade576040517f08c379a0000000000000000000000000000000000000000000000000000000008152600401610ad5906131cc565b60405180910390fd5b60088281548110610b18577f4e487b7100000000000000000000000000000000000000000000000000000000600052603260045260246000fd5b90600052602060002001549050919050565b6000806002600084815260200190815260200160002060009054906101000a900473ffffffffffffffffffffffffffffffffffffffff169050600073ffffffffffffffffffffffffffffffffffffffff168173ffffffffffffffffffffffffffffffffffffffff161415610bd3576040517f08c379a0000000000000000000000000000000000000000000000000000000008152600401610bca906130ec565b60405180910390fd5b80915050919050565b60008073ffffffffffffffffffffffffffffffffffffffff168273ffffffffffffffffffffffffffffffffffffffff161415610c4d576040517f08c379a0000000000000000000000000000000000000000000000000000000008152600401610c44906130cc565b60405180910390fd5b600360008373ffffffffffffffffffffffffffffffffffffffff1673ffffffffffffffffffffffffffffffffffffffff168152602001908152602001600020549050919050565b606060018054610ca390613453565b80601f0160208091040260200160405190810160405280929190818152602001828054610ccf90613453565b8015610d1c5780601f10610cf157610100808354040283529160200191610d1c565b820191906000526020600020905b815481529060010190602001808311610cff57829003601f168201915b5050505050905090565b610d38610d31611328565b8383611b67565b5050565b610d4d610d47611328565b83611822565b610d8c576040517f08c379a0000000000000000000000000000000000000000000000000000000008152600401610d83906131ac565b60405180910390fd5b610d9884848484611cd4565b50505050565b6060610da9826112bc565b610de8576040517f08c379a0000000000000000000000000000000000000000000000000000000008152600401610ddf9061316c565b60405180910390fd5b6000610df2611d30565b90506000815111610e125760405180602001604052806000815250610e3d565b80610e1c84611d47565b604051602001610e2d929190612edb565b6040516020818303038152906040525b915050919050565b610e4e816112bc565b610e5757600080fd5b3373ffffffffffffffffffffffffffffffffffffffff16610e7782610b2a565b73ffffffffffffffffffffffffffffffffffffffff1614610ecd576040517f08c379a0000000000000000000000000000000000000000000000000000000008152600401610ec49061314c565b60405180910390fd5b6000600b6000838152602001908152602001600020905060005b816000018054905081101561109b576000826000018281548110610f34577f4e487b7100000000000000000000000000000000000000000000000000000000600052603260045260246000fd5b9060005260206000200160009054906101000a900473ffffffffffffffffffffffffffffffffffffffff16905060008360010160008373ffffffffffffffffffffffffffffffffffffffff1673ffffffffffffffffffffffffffffffffffffffff16815260200190815260200160002054905060008111156110865760008460010160008473ffffffffffffffffffffffffffffffffffffffff1673ffffffffffffffffffffffffffffffffffffffff168152602001908152602001600020819055508173ffffffffffffffffffffffffffffffffffffffff1663a9059cbb33836040518363ffffffff1660e01b8152600401611032929190612f66565b602060405180830381600087803b15801561104c57600080fd5b505af1158015611060573d6000803e3d6000fd5b505050506040513d601f19601f82011682018060405250810190611084919061293b565b505b50508080611093906134b6565b915050610ee7565b505050565b6000600560008473ffffffffffffffffffffffffffffffffffffffff1673ffffffffffffffffffffffffffffffffffffffff16815260200190815260200160002060008373ffffffffffffffffffffffffffffffffffffffff1673ffffffffffffffffffffffffffffffffffffffff16815260200190815260200160002060009054906101000a900460ff16905092915050565b6000600b6000838152602001908152602001600020600001805490509050919050565b6000600b600084815260200190815260200160002060000182815481106111a7577f4e487b7100000000000000000000000000000000000000000000000000000000600052603260045260246000fd5b9060005260206000200160009054906101000a900473ffffffffffffffffffffffffffffffffffffffff16905092915050565b60007f80ac58cd000000000000000000000000000000000000000000000000000000007bffffffffffffffffffffffffffffffffffffffffffffffffffffffff1916827bffffffffffffffffffffffffffffffffffffffffffffffffffffffff191614806112a557507f5b5e139f000000000000000000000000000000000000000000000000000000007bffffffffffffffffffffffffffffffffffffffffffffffffffffffff1916827bffffffffffffffffffffffffffffffffffffffffffffffffffffffff1916145b806112b557506112b482611ef4565b5b9050919050565b60008073ffffffffffffffffffffffffffffffffffffffff166002600084815260200190815260200160002060009054906101000a900473ffffffffffffffffffffffffffffffffffffffff1673ffffffffffffffffffffffffffffffffffffffff1614159050919050565b600033905090565b816004600083815260200190815260200160002060006101000a81548173ffffffffffffffffffffffffffffffffffffffff021916908373ffffffffffffffffffffffffffffffffffffffff160217905550808273ffffffffffffffffffffffffffffffffffffffff166113a383610b2a565b73ffffffffffffffffffffffffffffffffffffffff167f8c5be1e5ebec7d5bd14f71427d1e84f3dd0314c0f7b2291e5b200ac8c7c3b92560405160405180910390a45050565b600081600001549050919050565b6001816000016000828254019250508190555050565b600073ffffffffffffffffffffffffffffffffffffffff168273ffffffffffffffffffffffffffffffffffffffff16141561147d576040517f08c379a00000000000000000000000000000000000000000000000000000000081526004016114749061310c565b60405180910390fd5b611486816112bc565b156114c6576040517f08c379a00000000000000000000000000000000000000000000000000000000081526004016114bd9061302c565b60405180910390fd5b6114d260008383611f5e565b6001600360008473ffffffffffffffffffffffffffffffffffffffff1673ffffffffffffffffffffffffffffffffffffffff168152602001908152602001600020600082825461152291906132d3565b92505081905550816002600083815260200190815260200160002060006101000a81548173ffffffffffffffffffffffffffffffffffffffff021916908373ffffffffffffffffffffffffffffffffffffffff160217905550808273ffffffffffffffffffffffffffffffffffffffff16600073ffffffffffffffffffffffffffffffffffffffff167fddf252ad1be2c89b69c2b068fc378daa952ba7f163c4a11628f55a4df523b3ef60405160405180910390a46115e360008383612072565b5050565b6000600b6000858152602001908152602001600020905060008160010160008573ffffffffffffffffffffffffffffffffffffffff1673ffffffffffffffffffffffffffffffffffffffff1681526020019081526020016000205414156116ae5780600001839080600181540180825580915050600190039060005260206000200160009091909190916101000a81548173ffffffffffffffffffffffffffffffffffffffff021916908373ffffffffffffffffffffffffffffffffffffffff1602179055505b818160010160008573ffffffffffffffffffffffffffffffffffffffff1673ffffffffffffffffffffffffffffffffffffffff16815260200190815260200160002060008282546116ff91906132d3565b9250508190555050505050565b6000730d500b1d8e8ef31e21c99d1db9a6444d3adf127073ffffffffffffffffffffffffffffffffffffffff1663095ea7b373e592427a0aece92de3edee1f18e0157c05861564846040518363ffffffff1660e01b8152600401611771929190612f66565b602060405180830381600087803b15801561178b57600080fd5b505af115801561179f573d6000803e3d6000fd5b505050506040513d601f19601f820116820180604052508101906117c3919061293b565b5061181b730d500b1d8e8ef31e21c99d1db9a6444d3adf12706101f4737ceb23fd6bc0add59e62ac25578270cff1b9f61960405160200161180693929190612e9e565b60405160208183030381529060405283612077565b9050919050565b600061182d826112bc565b61186c576040517f08c379a00000000000000000000000000000000000000000000000000000000081526004016118639061308c565b60405180910390fd5b600061187783610b2a565b90508073ffffffffffffffffffffffffffffffffffffffff168473ffffffffffffffffffffffffffffffffffffffff1614806118b957506118b881856110a0565b5b806118f757508373ffffffffffffffffffffffffffffffffffffffff166118df8461065b565b73ffffffffffffffffffffffffffffffffffffffff16145b91505092915050565b8273ffffffffffffffffffffffffffffffffffffffff1661192082610b2a565b73ffffffffffffffffffffffffffffffffffffffff1614611976576040517f08c379a000000000000000000000000000000000000000000000000000000000815260040161196d9061300c565b60405180910390fd5b600073ffffffffffffffffffffffffffffffffffffffff168273ffffffffffffffffffffffffffffffffffffffff1614156119e6576040517f08c379a00000000000000000000000000000000000000000000000000000000081526004016119dd9061304c565b60405180910390fd5b6119f1838383611f5e565b6119fc600082611330565b6001600360008573ffffffffffffffffffffffffffffffffffffffff1673ffffffffffffffffffffffffffffffffffffffff1681526020019081526020016000206000828254611a4c919061335a565b925050819055506001600360008473ffffffffffffffffffffffffffffffffffffffff1673ffffffffffffffffffffffffffffffffffffffff1681526020019081526020016000206000828254611aa391906132d3565b92505081905550816002600083815260200190815260200160002060006101000a81548173ffffffffffffffffffffffffffffffffffffffff021916908373ffffffffffffffffffffffffffffffffffffffff160217905550808273ffffffffffffffffffffffffffffffffffffffff168473ffffffffffffffffffffffffffffffffffffffff167fddf252ad1be2c89b69c2b068fc378daa952ba7f163c4a11628f55a4df523b3ef60405160405180910390a4611b62838383612072565b505050565b8173ffffffffffffffffffffffffffffffffffffffff168373ffffffffffffffffffffffffffffffffffffffff161415611bd6576040517f08c379a0000000000000000000000000000000000000000000000000000000008152600401611bcd9061306c565b60405180910390fd5b80600560008573ffffffffffffffffffffffffffffffffffffffff1673ffffffffffffffffffffffffffffffffffffffff16815260200190815260200160002060008473ffffffffffffffffffffffffffffffffffffffff1673ffffffffffffffffffffffffffffffffffffffff16815260200190815260200160002060006101000a81548160ff0219169083151502179055508173ffffffffffffffffffffffffffffffffffffffff168373ffffffffffffffffffffffffffffffffffffffff167f17307eab39ab6107e8899845ad3d59bd9653f200f220920489ca2b5937696c3183604051611cc79190612f8f565b60405180910390a3505050565b611cdf848484611900565b611ceb84848484612162565b611d2a576040517f08c379a0000000000000000000000000000000000000000000000000000000008152600401611d2190612fec565b60405180910390fd5b50505050565b606060405180602001604052806000815250905090565b60606000821415611d8f576040518060400160405280600181526020017f30000000000000000000000000000000000000000000000000000000000000008152509050611eef565b600082905060005b60008214611dc1578080611daa906134b6565b915050600a82611dba9190613329565b9150611d97565b60008167ffffffffffffffff811115611e03577f4e487b7100000000000000000000000000000000000000000000000000000000600052604160045260246000fd5b6040519080825280601f01601f191660200182016040528015611e355781602001600182028036833780820191505090505b5090505b60008514611ee857600182611e4e919061335a565b9150600a85611e5d9190613535565b6030611e6991906132d3565b60f81b818381518110611ea5577f4e487b7100000000000000000000000000000000000000000000000000000000600052603260045260246000fd5b60200101907effffffffffffffffffffffffffffffffffffffffffffffffffffffffffffff1916908160001a905350600a85611ee19190613329565b9450611e39565b8093505050505b919050565b60007f01ffc9a7000000000000000000000000000000000000000000000000000000007bffffffffffffffffffffffffffffffffffffffffffffffffffffffff1916827bffffffffffffffffffffffffffffffffffffffffffffffffffffffff1916149050919050565b611f698383836122f9565b600073ffffffffffffffffffffffffffffffffffffffff168373ffffffffffffffffffffffffffffffffffffffff161415611fac57611fa7816122fe565b611feb565b8173ffffffffffffffffffffffffffffffffffffffff168373ffffffffffffffffffffffffffffffffffffffff1614611fea57611fe98382612347565b5b5b600073ffffffffffffffffffffffffffffffffffffffff168273ffffffffffffffffffffffffffffffffffffffff16141561202e57612029816124b4565b61206d565b8273ffffffffffffffffffffffffffffffffffffffff168273ffffffffffffffffffffffffffffffffffffffff161461206c5761206b82826125f7565b5b5b505050565b505050565b6000806040518060a001604052808581526020013073ffffffffffffffffffffffffffffffffffffffff1681526020014281526020018481526020016000815250905073e592427a0aece92de3edee1f18e0157c0586156473ffffffffffffffffffffffffffffffffffffffff1663c04b8d59826040518263ffffffff1660e01b815260040161210791906131ec565b602060405180830381600087803b15801561212157600080fd5b505af1158015612135573d6000803e3d6000fd5b505050506040513d601f19601f8201168201806040525081019061215991906129df565b91505092915050565b60006121838473ffffffffffffffffffffffffffffffffffffffff16612676565b156122ec578373ffffffffffffffffffffffffffffffffffffffff1663150b7a026121ac611328565b8786866040518563ffffffff1660e01b81526004016121ce9493929190612f1a565b602060405180830381600087803b1580156121e857600080fd5b505af192505050801561221957506040513d601f19601f82011682018060405250810190612216919061298d565b60015b61229c573d8060008114612249576040519150601f19603f3d011682016040523d82523d6000602084013e61224e565b606091505b50600081511415612294576040517f08c379a000000000000000000000000000000000000000000000000000000000815260040161228b90612fec565b60405180910390fd5b805181602001fd5b63150b7a0260e01b7bffffffffffffffffffffffffffffffffffffffffffffffffffffffff1916817bffffffffffffffffffffffffffffffffffffffffffffffffffffffff1916149150506122f1565b600190505b949350505050565b505050565b6008805490506009600083815260200190815260200160002081905550600881908060018154018082558091505060019003906000526020600020016000909190919091505550565b6000600161235484610bdc565b61235e919061335a565b9050600060076000848152602001908152602001600020549050818114612443576000600660008673ffffffffffffffffffffffffffffffffffffffff1673ffffffffffffffffffffffffffffffffffffffff168152602001908152602001600020600084815260200190815260200160002054905080600660008773ffffffffffffffffffffffffffffffffffffffff1673ffffffffffffffffffffffffffffffffffffffff168152602001908152602001600020600084815260200190815260200160002081905550816007600083815260200190815260200160002081905550505b6007600084815260200190815260200160002060009055600660008573ffffffffffffffffffffffffffffffffffffffff1673ffffffffffffffffffffffffffffffffffffffff16815260200190815260200160002060008381526020019081526020016000206000905550505050565b600060016008805490506124c8919061335a565b905060006009600084815260200190815260200160002054905060006008838154811061251e577f4e487b7100000000000000000000000000000000000000000000000000000000600052603260045260246000fd5b906000526020600020015490508060088381548110612566577f4e487b7100000000000000000000000000000000000000000000000000000000600052603260045260246000fd5b9060005260206000200181905550816009600083815260200190815260200160002081905550600960008581526020019081526020016000206000905560088054806125db577f4e487b7100000000000000000000000000000000000000000000000000000000600052603160045260246000fd5b6001900381819060005260206000200160009055905550505050565b600061260283610bdc565b905081600660008573ffffffffffffffffffffffffffffffffffffffff1673ffffffffffffffffffffffffffffffffffffffff168152602001908152602001600020600083815260200190815260200160002081905550806007600084815260200190815260200160002081905550505050565b6000808273ffffffffffffffffffffffffffffffffffffffff163b119050919050565b60006126ac6126a78461324e565b613229565b9050828152602081018484840111156126c457600080fd5b6126cf848285613411565b509392505050565b6000813590506126e681613af4565b92915050565b6000813590506126fb81613b0b565b92915050565b60008151905061271081613b0b565b92915050565b60008135905061272581613b22565b92915050565b60008151905061273a81613b22565b92915050565b600082601f83011261275157600080fd5b8135612761848260208601612699565b91505092915050565b60008135905061277981613b39565b92915050565b60008151905061278e81613b39565b92915050565b6000602082840312156127a657600080fd5b60006127b4848285016126d7565b91505092915050565b600080604083850312156127d057600080fd5b60006127de858286016126d7565b92505060206127ef858286016126d7565b9150509250929050565b60008060006060848603121561280e57600080fd5b600061281c868287016126d7565b935050602061282d868287016126d7565b925050604061283e8682870161276a565b9150509250925092565b6000806000806080858703121561285e57600080fd5b600061286c878288016126d7565b945050602061287d878288016126d7565b935050604061288e8782880161276a565b925050606085013567ffffffffffffffff8111156128ab57600080fd5b6128b787828801612740565b91505092959194509250565b600080604083850312156128d657600080fd5b60006128e4858286016126d7565b92505060206128f5858286016126ec565b9150509250929050565b6000806040838503121561291257600080fd5b6000612920858286016126d7565b92505060206129318582860161276a565b9150509250929050565b60006020828403121561294d57600080fd5b600061295b84828501612701565b91505092915050565b60006020828403121561297657600080fd5b600061298484828501612716565b91505092915050565b60006020828403121561299f57600080fd5b60006129ad8482850161272b565b91505092915050565b6000602082840312156129c857600080fd5b60006129d68482850161276a565b91505092915050565b6000602082840312156129f157600080fd5b60006129ff8482850161277f565b91505092915050565b60008060408385031215612a1b57600080fd5b6000612a298582860161276a565b9250506020612a3a858286016126d7565b9150509250929050565b60008060408385031215612a5757600080fd5b6000612a658582860161276a565b9250506020612a768582860161276a565b9150509250929050565b612a898161338e565b82525050565b612a988161338e565b82525050565b612aaf612aaa8261338e565b6134ff565b82525050565b612abe816133a0565b82525050565b6000612acf8261327f565b612ad98185613295565b9350612ae9818560208601613420565b612af281613622565b840191505092915050565b6000612b088261327f565b612b1281856132a6565b9350612b22818560208601613420565b612b2b81613622565b840191505092915050565b6000612b418261328a565b612b4b81856132b7565b9350612b5b818560208601613420565b612b6481613622565b840191505092915050565b6000612b7a8261328a565b612b8481856132c8565b9350612b94818560208601613420565b80840191505092915050565b6000612bad602b836132b7565b9150612bb88261364d565b604082019050919050565b6000612bd06032836132b7565b9150612bdb8261369c565b604082019050919050565b6000612bf36025836132b7565b9150612bfe826136eb565b604082019050919050565b6000612c16601c836132b7565b9150612c218261373a565b602082019050919050565b6000612c396024836132b7565b9150612c4482613763565b604082019050919050565b6000612c5c6019836132b7565b9150612c67826137b2565b602082019050919050565b6000612c7f602c836132b7565b9150612c8a826137db565b604082019050919050565b6000612ca26038836132b7565b9150612cad8261382a565b604082019050919050565b6000612cc5602a836132b7565b9150612cd082613879565b604082019050919050565b6000612ce86029836132b7565b9150612cf3826138c8565b604082019050919050565b6000612d0b6020836132b7565b9150612d1682613917565b602082019050919050565b6000612d2e602c836132b7565b9150612d3982613940565b604082019050919050565b6000612d51600b836132b7565b9150612d5c8261398f565b602082019050919050565b6000612d74602f836132b7565b9150612d7f826139b8565b604082019050919050565b6000612d976021836132b7565b9150612da282613a07565b604082019050919050565b6000612dba6031836132b7565b9150612dc582613a56565b604082019050919050565b6000612ddd602c836132b7565b9150612de882613aa5565b604082019050919050565b600060a0830160008301518482036000860152612e108282612ac4565b9150506020830151612e256020860182612a80565b506040830151612e386040860182612e80565b506060830151612e4b6060860182612e80565b506080830151612e5e6080860182612e80565b508091505092915050565b612e7a612e75826133f8565b613523565b82525050565b612e8981613407565b82525050565b612e9881613407565b82525050565b6000612eaa8286612a9e565b601482019150612eba8285612e69565b600382019150612eca8284612a9e565b601482019150819050949350505050565b6000612ee78285612b6f565b9150612ef38284612b6f565b91508190509392505050565b6000602082019050612f146000830184612a8f565b92915050565b6000608082019050612f2f6000830187612a8f565b612f3c6020830186612a8f565b612f496040830185612e8f565b8181036060830152612f5b8184612afd565b905095945050505050565b6000604082019050612f7b6000830185612a8f565b612f886020830184612e8f565b9392505050565b6000602082019050612fa46000830184612ab5565b92915050565b60006020820190508181036000830152612fc48184612b36565b905092915050565b60006020820190508181036000830152612fe581612ba0565b9050919050565b6000602082019050818103600083015261300581612bc3565b9050919050565b6000602082019050818103600083015261302581612be6565b9050919050565b6000602082019050818103600083015261304581612c09565b9050919050565b6000602082019050818103600083015261306581612c2c565b9050919050565b6000602082019050818103600083015261308581612c4f565b9050919050565b600060208201905081810360008301526130a581612c72565b9050919050565b600060208201905081810360008301526130c581612c95565b9050919050565b600060208201905081810360008301526130e581612cb8565b9050919050565b6000602082019050818103600083015261310581612cdb565b9050919050565b6000602082019050818103600083015261312581612cfe565b9050919050565b6000602082019050818103600083015261314581612d21565b9050919050565b6000602082019050818103600083015261316581612d44565b9050919050565b6000602082019050818103600083015261318581612d67565b9050919050565b600060208201905081810360008301526131a581612d8a565b9050919050565b600060208201905081810360008301526131c581612dad565b9050919050565b600060208201905081810360008301526131e581612dd0565b9050919050565b600060208201905081810360008301526132068184612df3565b905092915050565b60006020820190506132236000830184612e8f565b92915050565b6000613233613244565b905061323f8282613485565b919050565b6000604051905090565b600067ffffffffffffffff821115613269576132686135f3565b5b61327282613622565b9050602081019050919050565b600081519050919050565b600081519050919050565b600082825260208201905092915050565b600082825260208201905092915050565b600082825260208201905092915050565b600081905092915050565b60006132de82613407565b91506132e983613407565b9250827fffffffffffffffffffffffffffffffffffffffffffffffffffffffffffffffff0382111561331e5761331d613566565b5b828201905092915050565b600061333482613407565b915061333f83613407565b92508261334f5761334e613595565b5b828204905092915050565b600061336582613407565b915061337083613407565b92508282101561338357613382613566565b5b828203905092915050565b6000613399826133d8565b9050919050565b60008115159050919050565b60007fffffffff0000000000000000000000000000000000000000000000000000000082169050919050565b600073ffffffffffffffffffffffffffffffffffffffff82169050919050565b600062ffffff82169050919050565b6000819050919050565b82818337600083830152505050565b60005b8381101561343e578082015181840152602081019050613423565b8381111561344d576000848401525b50505050565b6000600282049050600182168061346b57607f821691505b6020821081141561347f5761347e6135c4565b5b50919050565b61348e82613622565b810181811067ffffffffffffffff821117156134ad576134ac6135f3565b5b80604052505050565b60006134c182613407565b91507fffffffffffffffffffffffffffffffffffffffffffffffffffffffffffffffff8214156134f4576134f3613566565b5b600182019050919050565b600061350a82613511565b9050919050565b600061351c82613640565b9050919050565b600061352e82613633565b9050919050565b600061354082613407565b915061354b83613407565b92508261355b5761355a613595565b5b828206905092915050565b7f4e487b7100000000000000000000000000000000000000000000000000000000600052601160045260246000fd5b7f4e487b7100000000000000000000000000000000000000000000000000000000600052601260045260246000fd5b7f4e487b7100000000000000000000000000000000000000000000000000000000600052602260045260246000fd5b7f4e487b7100000000000000000000000000000000000000000000000000000000600052604160045260246000fd5b6000601f19601f8301169050919050565b60008160e81b9050919050565b60008160601b9050919050565b7f455243373231456e756d657261626c653a206f776e657220696e646578206f7560008201527f74206f6620626f756e6473000000000000000000000000000000000000000000602082015250565b7f4552433732313a207472616e7366657220746f206e6f6e20455243373231526560008201527f63656976657220696d706c656d656e7465720000000000000000000000000000602082015250565b7f4552433732313a207472616e736665722066726f6d20696e636f72726563742060008201527f6f776e6572000000000000000000000000000000000000000000000000000000602082015250565b7f4552433732313a20746f6b656e20616c7265616479206d696e74656400000000600082015250565b7f4552433732313a207472616e7366657220746f20746865207a65726f2061646460008201527f7265737300000000000000000000000000000000000000000000000000000000602082015250565b7f4552433732313a20617070726f766520746f2063616c6c657200000000000000600082015250565b7f4552433732313a206f70657261746f7220717565727920666f72206e6f6e657860008201527f697374656e7420746f6b656e0000000000000000000000000000000000000000602082015250565b7f4552433732313a20617070726f76652063616c6c6572206973206e6f74206f7760008201527f6e6572206e6f7220617070726f76656420666f7220616c6c0000000000000000602082015250565b7f4552433732313a2062616c616e636520717565727920666f7220746865207a6560008201527f726f206164647265737300000000000000000000000000000000000000000000602082015250565b7f4552433732313a206f776e657220717565727920666f72206e6f6e657869737460008201527f656e7420746f6b656e0000000000000000000000000000000000000000000000602082015250565b7f4552433732313a206d696e7420746f20746865207a65726f2061646472657373600082015250565b7f4552433732313a20617070726f76656420717565727920666f72206e6f6e657860008201527f697374656e7420746f6b656e0000000000000000000000000000000000000000602082015250565b7f4e6f7420616c6c6f776564000000000000000000000000000000000000000000600082015250565b7f4552433732314d657461646174613a2055524920717565727920666f72206e6f60008201527f6e6578697374656e7420746f6b656e0000000000000000000000000000000000602082015250565b7f4552433732313a20617070726f76616c20746f2063757272656e74206f776e6560008201527f7200000000000000000000000000000000000000000000000000000000000000602082015250565b7f4552433732313a207472616e736665722063616c6c6572206973206e6f74206f60008201527f776e6572206e6f7220617070726f766564000000000000000000000000000000602082015250565b7f455243373231456e756d657261626c653a20676c6f62616c20696e646578206f60008201527f7574206f6620626f756e64730000000000000000000000000000000000000000602082015250565b613afd8161338e565b8114613b0857600080fd5b50565b613b14816133a0565b8114613b1f57600080fd5b50565b613b2b816133ac565b8114613b3657600080fd5b50565b613b4281613407565b8114613b4d57600080fd5b5056fea264697066735822122039cffa17cac1049a74277e8fe73b057570e9445c72f441cafba91792876e8d0364736f6c63430008040033",
  "linkReferences": {},
  "deployedLinkReferences": {}
}