{
  "_format": "hh-sol-artifact-1",
  "contractName": "GoodieBag",
  "sourceName": "contracts/GoodieBag.sol",
  "abi": [
    {
      "inputs": [],
      "stateMutability": "nonpayable",
      "type": "constructor"
    },
    {
      "anonymous": false,
      "inputs": [
        {
          "indexed": true,
          "internalType": "address",
          "name": "owner",
          "type": "address"
        },
        {
          "indexed": true,
          "internalType": "address",
          "name": "approved",
          "type": "address"
        },
        {
          "indexed": true,
          "internalType": "uint256",
          "name": "tokenId",
          "type": "uint256"
        }
      ],
      "name": "Approval",
      "type": "event"
    },
    {
      "anonymous": false,
      "inputs": [
        {
          "indexed": true,
          "internalType": "address",
          "name": "owner",
          "type": "address"
        },
        {
          "indexed": true,
          "internalType": "address",
          "name": "operator",
          "type": "address"
        },
        {
          "indexed": false,
          "internalType": "bool",
          "name": "approved",
          "type": "bool"
        }
      ],
      "name": "ApprovalForAll",
      "type": "event"
    },
    {
      "anonymous": false,
      "inputs": [
        {
          "indexed": true,
          "internalType": "address",
          "name": "to",
          "type": "address"
        },
        {
          "indexed": true,
          "internalType": "uint256",
          "name": "tokenId",
          "type": "uint256"
        }
      ],
      "name": "Redeem",
      "type": "event"
    },
    {
      "anonymous": false,
      "inputs": [
        {
          "indexed": true,
          "internalType": "address",
          "name": "from",
          "type": "address"
        },
        {
          "indexed": true,
          "internalType": "address",
          "name": "to",
          "type": "address"
        },
        {
          "indexed": true,
          "internalType": "uint256",
          "name": "tokenId",
          "type": "uint256"
        }
      ],
      "name": "Transfer",
      "type": "event"
    },
    {
      "inputs": [
        {
          "internalType": "address",
          "name": "to",
          "type": "address"
        },
        {
          "internalType": "uint256",
          "name": "tokenId",
          "type": "uint256"
        }
      ],
      "name": "approve",
      "outputs": [],
      "stateMutability": "nonpayable",
      "type": "function"
    },
    {
      "inputs": [
        {
          "internalType": "address",
          "name": "owner",
          "type": "address"
        }
      ],
      "name": "balanceOf",
      "outputs": [
        {
          "internalType": "uint256",
          "name": "",
          "type": "uint256"
        }
      ],
      "stateMutability": "view",
      "type": "function"
    },
    {
      "inputs": [
        {
          "internalType": "uint256",
          "name": "tokenId",
          "type": "uint256"
        }
      ],
      "name": "getApproved",
      "outputs": [
        {
          "internalType": "address",
          "name": "",
          "type": "address"
        }
      ],
      "stateMutability": "view",
      "type": "function"
    },
    {
      "inputs": [
        {
          "internalType": "uint256",
          "name": "nft",
          "type": "uint256"
        },
        {
          "internalType": "uint256",
          "name": "index",
          "type": "uint256"
        }
      ],
      "name": "getNFTTokenAddress",
      "outputs": [
        {
          "internalType": "address",
          "name": "",
          "type": "address"
        }
      ],
      "stateMutability": "view",
      "type": "function"
    },
    {
      "inputs": [
        {
          "internalType": "uint256",
          "name": "nft",
          "type": "uint256"
        },
        {
          "internalType": "address",
          "name": "tokenAddress",
          "type": "address"
        }
      ],
      "name": "getNFTTokenBalance",
      "outputs": [
        {
          "internalType": "uint256",
          "name": "",
          "type": "uint256"
        }
      ],
      "stateMutability": "view",
      "type": "function"
    },
    {
      "inputs": [
        {
          "internalType": "uint256",
          "name": "nft",
          "type": "uint256"
        }
      ],
      "name": "getNFTTokenCount",
      "outputs": [
        {
          "internalType": "uint256",
          "name": "",
          "type": "uint256"
        }
      ],
      "stateMutability": "view",
      "type": "function"
    },
    {
      "inputs": [
        {
          "internalType": "address",
          "name": "owner",
          "type": "address"
        },
        {
          "internalType": "address",
          "name": "operator",
          "type": "address"
        }
      ],
      "name": "isApprovedForAll",
      "outputs": [
        {
          "internalType": "bool",
          "name": "",
          "type": "bool"
        }
      ],
      "stateMutability": "view",
      "type": "function"
    },
    {
      "inputs": [],
      "name": "mint",
      "outputs": [],
      "stateMutability": "payable",
      "type": "function"
    },
    {
      "inputs": [],
      "name": "name",
      "outputs": [
        {
          "internalType": "string",
          "name": "",
          "type": "string"
        }
      ],
      "stateMutability": "view",
      "type": "function"
    },
    {
      "inputs": [
        {
          "internalType": "uint256",
          "name": "tokenId",
          "type": "uint256"
        }
      ],
      "name": "ownerOf",
      "outputs": [
        {
          "internalType": "address",
          "name": "",
          "type": "address"
        }
      ],
      "stateMutability": "view",
      "type": "function"
    },
    {
      "inputs": [
        {
          "internalType": "uint256",
          "name": "nft",
          "type": "uint256"
        }
      ],
      "name": "redeem",
      "outputs": [],
      "stateMutability": "nonpayable",
      "type": "function"
    },
    {
      "inputs": [
        {
          "internalType": "uint256",
          "name": "nft",
          "type": "uint256"
        },
        {
          "internalType": "address",
          "name": "tokenAddress",
          "type": "address"
        }
      ],
      "name": "redeemToken",
      "outputs": [],
      "stateMutability": "nonpayable",
      "type": "function"
    },
    {
      "inputs": [
        {
          "internalType": "address",
          "name": "from",
          "type": "address"
        },
        {
          "internalType": "address",
          "name": "to",
          "type": "address"
        },
        {
          "internalType": "uint256",
          "name": "tokenId",
          "type": "uint256"
        }
      ],
      "name": "safeTransferFrom",
      "outputs": [],
      "stateMutability": "nonpayable",
      "type": "function"
    },
    {
      "inputs": [
        {
          "internalType": "address",
          "name": "from",
          "type": "address"
        },
        {
          "internalType": "address",
          "name": "to",
          "type": "address"
        },
        {
          "internalType": "uint256",
          "name": "tokenId",
          "type": "uint256"
        },
        {
          "internalType": "bytes",
          "name": "_data",
          "type": "bytes"
        }
      ],
      "name": "safeTransferFrom",
      "outputs": [],
      "stateMutability": "nonpayable",
      "type": "function"
    },
    {
      "inputs": [
        {
          "internalType": "address",
          "name": "operator",
          "type": "address"
        },
        {
          "internalType": "bool",
          "name": "approved",
          "type": "bool"
        }
      ],
      "name": "setApprovalForAll",
      "outputs": [],
      "stateMutability": "nonpayable",
      "type": "function"
    },
    {
      "inputs": [
        {
          "internalType": "bytes4",
          "name": "interfaceId",
          "type": "bytes4"
        }
      ],
      "name": "supportsInterface",
      "outputs": [
        {
          "internalType": "bool",
          "name": "",
          "type": "bool"
        }
      ],
      "stateMutability": "view",
      "type": "function"
    },
    {
      "inputs": [],
      "name": "symbol",
      "outputs": [
        {
          "internalType": "string",
          "name": "",
          "type": "string"
        }
      ],
      "stateMutability": "view",
      "type": "function"
    },
    {
      "inputs": [
        {
          "internalType": "uint256",
          "name": "index",
          "type": "uint256"
        }
      ],
      "name": "tokenByIndex",
      "outputs": [
        {
          "internalType": "uint256",
          "name": "",
          "type": "uint256"
        }
      ],
      "stateMutability": "view",
      "type": "function"
    },
    {
      "inputs": [
        {
          "internalType": "address",
          "name": "owner",
          "type": "address"
        },
        {
          "internalType": "uint256",
          "name": "index",
          "type": "uint256"
        }
      ],
      "name": "tokenOfOwnerByIndex",
      "outputs": [
        {
          "internalType": "uint256",
          "name": "",
          "type": "uint256"
        }
      ],
      "stateMutability": "view",
      "type": "function"
    },
    {
      "inputs": [
        {
          "internalType": "uint256",
          "name": "tokenId",
          "type": "uint256"
        }
      ],
      "name": "tokenURI",
      "outputs": [
        {
          "internalType": "string",
          "name": "",
          "type": "string"
        }
      ],
      "stateMutability": "view",
      "type": "function"
    },
    {
      "inputs": [],
      "name": "totalSupply",
      "outputs": [
        {
          "internalType": "uint256",
          "name": "",
          "type": "uint256"
        }
      ],
      "stateMutability": "view",
      "type": "function"
    },
    {
      "inputs": [
        {
          "internalType": "address",
          "name": "from",
          "type": "address"
        },
        {
          "internalType": "address",
          "name": "to",
          "type": "address"
        },
        {
          "internalType": "uint256",
          "name": "tokenId",
          "type": "uint256"
        }
      ],
      "name": "transferFrom",
      "outputs": [],
      "stateMutability": "nonpayable",
      "type": "function"
    }
  ],
  "bytecode": "0x60806040523480156200001157600080fd5b506040518060400160405280600981526020017f476f6f64696542616700000000000000000000000000000000000000000000008152506040518060400160405280600481526020017f4742616700000000000000000000000000000000000000000000000000000000815250816000908051906020019062000096929190620000b8565b508060019080519060200190620000af929190620000b8565b505050620001cd565b828054620000c69062000168565b90600052602060002090601f016020900481019282620000ea576000855562000136565b82601f106200010557805160ff191683800117855562000136565b8280016001018555821562000136579182015b828111156200013557825182559160200191906001019062000118565b5b50905062000145919062000149565b5090565b5b80821115620001645760008160009055506001016200014a565b5090565b600060028204905060018216806200018157607f821691505b602082108114156200019857620001976200019e565b5b50919050565b7f4e487b7100000000000000000000000000000000000000000000000000000000600052602260045260246000fd5b6140cb80620001dd6000396000f3fe6080604052600436106101355760003560e01c80636352211e116100ab578063c3501ff61161006f578063c3501ff61461043d578063c87b56dd14610466578063db006a75146104a3578063e985e9c5146104cc578063e9fee71114610509578063eb9794391461054657610135565b80636352211e1461034657806370a082311461038357806395d89b41146103c0578063a22cb465146103eb578063b88d4fde1461041457610135565b80631249c58b116100fd5780631249c58b1461024557806318160ddd1461024f57806323b872dd1461027a5780632f745c59146102a357806342842e0e146102e05780634f6ccce71461030957610135565b806301ffc9a71461013a57806306fdde0314610177578063081812fc146101a2578063095ea7b3146101df57806310c6d8ef14610208575b600080fd5b34801561014657600080fd5b50610161600480360381019061015c9190612e35565b610583565b60405161016e91906134b4565b60405180910390f35b34801561018357600080fd5b5061018c6105fd565b60405161019991906134cf565b60405180910390f35b3480156101ae57600080fd5b506101c960048036038101906101c49190612e87565b61068f565b6040516101d691906133df565b60405180910390f35b3480156101eb57600080fd5b5061020660048036038101906102019190612dd0565b610714565b005b34801561021457600080fd5b5061022f600480360381019061022a9190612ed9565b61082c565b60405161023c9190613733565b60405180910390f35b61024d61088a565b005b34801561025b57600080fd5b50610264610c68565b6040516102719190613733565b60405180910390f35b34801561028657600080fd5b506102a1600480360381019061029c9190612cca565b610c75565b005b3480156102af57600080fd5b506102ca60048036038101906102c59190612dd0565b610cd5565b6040516102d79190613733565b60405180910390f35b3480156102ec57600080fd5b5061030760048036038101906103029190612cca565b610d7a565b005b34801561031557600080fd5b50610330600480360381019061032b9190612e87565b610d9a565b60405161033d9190613733565b60405180910390f35b34801561035257600080fd5b5061036d60048036038101906103689190612e87565b610e31565b60405161037a91906133df565b60405180910390f35b34801561038f57600080fd5b506103aa60048036038101906103a59190612c65565b610ee3565b6040516103b79190613733565b60405180910390f35b3480156103cc57600080fd5b506103d5610f9b565b6040516103e291906134cf565b60405180910390f35b3480156103f757600080fd5b50610412600480360381019061040d9190612d94565b61102d565b005b34801561042057600080fd5b5061043b60048036038101906104369190612d19565b611043565b005b34801561044957600080fd5b50610464600480360381019061045f9190612ed9565b6110a5565b005b34801561047257600080fd5b5061048d60048036038101906104889190612e87565b61126f565b60405161049a91906134cf565b60405180910390f35b3480156104af57600080fd5b506104ca60048036038101906104c59190612e87565b611316565b005b3480156104d857600080fd5b506104f360048036038101906104ee9190612c8e565b611571565b60405161050091906134b4565b60405180910390f35b34801561051557600080fd5b50610530600480360381019061052b9190612e87565b611605565b60405161053d9190613733565b60405180910390f35b34801561055257600080fd5b5061056d60048036038101906105689190612f15565b611628565b60405161057a91906133df565b60405180910390f35b60007f780e9d63000000000000000000000000000000000000000000000000000000007bffffffffffffffffffffffffffffffffffffffffffffffffffffffff1916827bffffffffffffffffffffffffffffffffffffffffffffffffffffffff191614806105f657506105f5826116ab565b5b9050919050565b60606000805461060c90613998565b80601f016020809104026020016040519081016040528092919081815260200182805461063890613998565b80156106855780601f1061065a57610100808354040283529160200191610685565b820191906000526020600020905b81548152906001019060200180831161066857829003601f168201915b5050505050905090565b600061069a8261178d565b6106d9576040517f08c379a00000000000000000000000000000000000000000000000000000000081526004016106d090613651565b60405180910390fd5b6004600083815260200190815260200160002060009054906101000a900473ffffffffffffffffffffffffffffffffffffffff169050919050565b600061071f82610e31565b90508073ffffffffffffffffffffffffffffffffffffffff168373ffffffffffffffffffffffffffffffffffffffff161415610790576040517f08c379a0000000000000000000000000000000000000000000000000000000008152600401610787906136b1565b60405180910390fd5b8073ffffffffffffffffffffffffffffffffffffffff166107af6117f9565b73ffffffffffffffffffffffffffffffffffffffff1614806107de57506107dd816107d86117f9565b611571565b5b61081d576040517f08c379a0000000000000000000000000000000000000000000000000000000008152600401610814906135d1565b60405180910390fd5b6108278383611801565b505050565b6000600b600084815260200190815260200160002060010160008373ffffffffffffffffffffffffffffffffffffffff1673ffffffffffffffffffffffffffffffffffffffff16815260200190815260200160002054905092915050565b6000341161089757600080fd5b730d500b1d8e8ef31e21c99d1db9a6444d3adf127073ffffffffffffffffffffffffffffffffffffffff1663d0e30db0346040518263ffffffff1660e01b81526004016000604051808303818588803b1580156108f357600080fd5b505af1158015610907573d6000803e3d6000fd5b50505050506000610918600a6118ba565b9050610924600a6118c8565b61092e33826118de565b61095981730d500b1d8e8ef31e21c99d1db9a6444d3adf1270600334610954919061384e565b611ab8565b600061097060033461096b919061384e565b611bdd565b905061099182737ceb23fd6bc0add59e62ac25578270cff1b9f61983611ab8565b6000736d80113e533a2c0fe82eabd35f1875dcea89ea9773ffffffffffffffffffffffffffffffffffffffff166370a08231306040518263ffffffff1660e01b81526004016109e091906133df565b60206040518083038186803b1580156109f857600080fd5b505afa158015610a0c573d6000803e3d6000fd5b505050506040513d601f19601f82011682018060405250810190610a309190612eb0565b9050730d500b1d8e8ef31e21c99d1db9a6444d3adf127073ffffffffffffffffffffffffffffffffffffffff1663095ea7b373794a61358d6845594f94dc1db02a252b5b4814ad600334610a84919061384e565b6040518363ffffffff1660e01b8152600401610aa1929190613446565b602060405180830381600087803b158015610abb57600080fd5b505af1158015610acf573d6000803e3d6000fd5b505050506040513d601f19601f82011682018060405250810190610af39190612e0c565b5073794a61358d6845594f94dc1db02a252b5b4814ad73ffffffffffffffffffffffffffffffffffffffff1663e8eda9df730d500b1d8e8ef31e21c99d1db9a6444d3adf1270600334610b46919061384e565b3060006040518563ffffffff1660e01b8152600401610b68949392919061346f565b600060405180830381600087803b158015610b8257600080fd5b505af1158015610b96573d6000803e3d6000fd5b5050505080736d80113e533a2c0fe82eabd35f1875dcea89ea9773ffffffffffffffffffffffffffffffffffffffff166370a08231306040518263ffffffff1660e01b8152600401610be891906133df565b60206040518083038186803b158015610c0057600080fd5b505afa158015610c14573d6000803e3d6000fd5b505050506040513d601f19601f82011682018060405250810190610c389190612eb0565b610c42919061387f565b9050610c6383736d80113e533a2c0fe82eabd35f1875dcea89ea9783611ab8565b505050565b6000600880549050905090565b610c86610c806117f9565b82611cf3565b610cc5576040517f08c379a0000000000000000000000000000000000000000000000000000000008152600401610cbc906136d1565b60405180910390fd5b610cd0838383611dd1565b505050565b6000610ce083610ee3565b8210610d21576040517f08c379a0000000000000000000000000000000000000000000000000000000008152600401610d18906134f1565b60405180910390fd5b600660008473ffffffffffffffffffffffffffffffffffffffff1673ffffffffffffffffffffffffffffffffffffffff168152602001908152602001600020600083815260200190815260200160002054905092915050565b610d9583838360405180602001604052806000815250611043565b505050565b6000610da4610c68565b8210610de5576040517f08c379a0000000000000000000000000000000000000000000000000000000008152600401610ddc906136f1565b60405180910390fd5b60088281548110610e1f577f4e487b7100000000000000000000000000000000000000000000000000000000600052603260045260246000fd5b90600052602060002001549050919050565b6000806002600084815260200190815260200160002060009054906101000a900473ffffffffffffffffffffffffffffffffffffffff169050600073ffffffffffffffffffffffffffffffffffffffff168173ffffffffffffffffffffffffffffffffffffffff161415610eda576040517f08c379a0000000000000000000000000000000000000000000000000000000008152600401610ed190613611565b60405180910390fd5b80915050919050565b60008073ffffffffffffffffffffffffffffffffffffffff168273ffffffffffffffffffffffffffffffffffffffff161415610f54576040517f08c379a0000000000000000000000000000000000000000000000000000000008152600401610f4b906135f1565b60405180910390fd5b600360008373ffffffffffffffffffffffffffffffffffffffff1673ffffffffffffffffffffffffffffffffffffffff168152602001908152602001600020549050919050565b606060018054610faa90613998565b80601f0160208091040260200160405190810160405280929190818152602001828054610fd690613998565b80156110235780601f10610ff857610100808354040283529160200191611023565b820191906000526020600020905b81548152906001019060200180831161100657829003601f168201915b5050505050905090565b61103f6110386117f9565b8383612038565b5050565b61105461104e6117f9565b83611cf3565b611093576040517f08c379a000000000000000000000000000000000000000000000000000000000815260040161108a906136d1565b60405180910390fd5b61109f848484846121a5565b50505050565b6110ae8261178d565b6110b757600080fd5b3373ffffffffffffffffffffffffffffffffffffffff166110d783610e31565b73ffffffffffffffffffffffffffffffffffffffff161461112d576040517f08c379a000000000000000000000000000000000000000000000000000000000815260040161112490613671565b60405180910390fd5b6000600b6000848152602001908152602001600020905060008160010160008473ffffffffffffffffffffffffffffffffffffffff1673ffffffffffffffffffffffffffffffffffffffff16815260200190815260200160002054905060008111156112695760008260010160008573ffffffffffffffffffffffffffffffffffffffff1673ffffffffffffffffffffffffffffffffffffffff168152602001908152602001600020819055508273ffffffffffffffffffffffffffffffffffffffff1663a9059cbb33836040518363ffffffff1660e01b8152600401611215929190613446565b602060405180830381600087803b15801561122f57600080fd5b505af1158015611243573d6000803e3d6000fd5b505050506040513d601f19601f820116820180604052508101906112679190612e0c565b505b50505050565b606061127a8261178d565b6112b9576040517f08c379a00000000000000000000000000000000000000000000000000000000081526004016112b090613691565b60405180910390fd5b60006112c3612201565b905060008151116112e3576040518060200160405280600081525061130e565b806112ed84612218565b6040516020016112fe9291906133bb565b6040516020818303038152906040525b915050919050565b61131f8161178d565b61132857600080fd5b3373ffffffffffffffffffffffffffffffffffffffff1661134882610e31565b73ffffffffffffffffffffffffffffffffffffffff161461139e576040517f08c379a000000000000000000000000000000000000000000000000000000000815260040161139590613671565b60405180910390fd5b6000600b6000838152602001908152602001600020905060005b816000018054905081101561156c576000826000018281548110611405577f4e487b7100000000000000000000000000000000000000000000000000000000600052603260045260246000fd5b9060005260206000200160009054906101000a900473ffffffffffffffffffffffffffffffffffffffff16905060008360010160008373ffffffffffffffffffffffffffffffffffffffff1673ffffffffffffffffffffffffffffffffffffffff16815260200190815260200160002054905060008111156115575760008460010160008473ffffffffffffffffffffffffffffffffffffffff1673ffffffffffffffffffffffffffffffffffffffff168152602001908152602001600020819055508173ffffffffffffffffffffffffffffffffffffffff1663a9059cbb33836040518363ffffffff1660e01b8152600401611503929190613446565b602060405180830381600087803b15801561151d57600080fd5b505af1158015611531573d6000803e3d6000fd5b505050506040513d601f19601f820116820180604052508101906115559190612e0c565b505b50508080611564906139fb565b9150506113b8565b505050565b6000600560008473ffffffffffffffffffffffffffffffffffffffff1673ffffffffffffffffffffffffffffffffffffffff16815260200190815260200160002060008373ffffffffffffffffffffffffffffffffffffffff1673ffffffffffffffffffffffffffffffffffffffff16815260200190815260200160002060009054906101000a900460ff16905092915050565b6000600b6000838152602001908152602001600020600001805490509050919050565b6000600b60008481526020019081526020016000206000018281548110611678577f4e487b7100000000000000000000000000000000000000000000000000000000600052603260045260246000fd5b9060005260206000200160009054906101000a900473ffffffffffffffffffffffffffffffffffffffff16905092915050565b60007f80ac58cd000000000000000000000000000000000000000000000000000000007bffffffffffffffffffffffffffffffffffffffffffffffffffffffff1916827bffffffffffffffffffffffffffffffffffffffffffffffffffffffff1916148061177657507f5b5e139f000000000000000000000000000000000000000000000000000000007bffffffffffffffffffffffffffffffffffffffffffffffffffffffff1916827bffffffffffffffffffffffffffffffffffffffffffffffffffffffff1916145b806117865750611785826123c5565b5b9050919050565b60008073ffffffffffffffffffffffffffffffffffffffff166002600084815260200190815260200160002060009054906101000a900473ffffffffffffffffffffffffffffffffffffffff1673ffffffffffffffffffffffffffffffffffffffff1614159050919050565b600033905090565b816004600083815260200190815260200160002060006101000a81548173ffffffffffffffffffffffffffffffffffffffff021916908373ffffffffffffffffffffffffffffffffffffffff160217905550808273ffffffffffffffffffffffffffffffffffffffff1661187483610e31565b73ffffffffffffffffffffffffffffffffffffffff167f8c5be1e5ebec7d5bd14f71427d1e84f3dd0314c0f7b2291e5b200ac8c7c3b92560405160405180910390a45050565b600081600001549050919050565b6001816000016000828254019250508190555050565b600073ffffffffffffffffffffffffffffffffffffffff168273ffffffffffffffffffffffffffffffffffffffff16141561194e576040517f08c379a000000000000000000000000000000000000000000000000000000000815260040161194590613631565b60405180910390fd5b6119578161178d565b15611997576040517f08c379a000000000000000000000000000000000000000000000000000000000815260040161198e90613551565b60405180910390fd5b6119a36000838361242f565b6001600360008473ffffffffffffffffffffffffffffffffffffffff1673ffffffffffffffffffffffffffffffffffffffff16815260200190815260200160002060008282546119f391906137f8565b92505081905550816002600083815260200190815260200160002060006101000a81548173ffffffffffffffffffffffffffffffffffffffff021916908373ffffffffffffffffffffffffffffffffffffffff160217905550808273ffffffffffffffffffffffffffffffffffffffff16600073ffffffffffffffffffffffffffffffffffffffff167fddf252ad1be2c89b69c2b068fc378daa952ba7f163c4a11628f55a4df523b3ef60405160405180910390a4611ab460008383612543565b5050565b6000600b6000858152602001908152602001600020905060008160010160008573ffffffffffffffffffffffffffffffffffffffff1673ffffffffffffffffffffffffffffffffffffffff168152602001908152602001600020541415611b7f5780600001839080600181540180825580915050600190039060005260206000200160009091909190916101000a81548173ffffffffffffffffffffffffffffffffffffffff021916908373ffffffffffffffffffffffffffffffffffffffff1602179055505b818160010160008573ffffffffffffffffffffffffffffffffffffffff1673ffffffffffffffffffffffffffffffffffffffff1681526020019081526020016000206000828254611bd091906137f8565b9250508190555050505050565b6000730d500b1d8e8ef31e21c99d1db9a6444d3adf127073ffffffffffffffffffffffffffffffffffffffff1663095ea7b373e592427a0aece92de3edee1f18e0157c05861564846040518363ffffffff1660e01b8152600401611c42929190613446565b602060405180830381600087803b158015611c5c57600080fd5b505af1158015611c70573d6000803e3d6000fd5b505050506040513d601f19601f82011682018060405250810190611c949190612e0c565b50611cec730d500b1d8e8ef31e21c99d1db9a6444d3adf12706101f4737ceb23fd6bc0add59e62ac25578270cff1b9f619604051602001611cd79392919061337e565b60405160208183030381529060405283612548565b9050919050565b6000611cfe8261178d565b611d3d576040517f08c379a0000000000000000000000000000000000000000000000000000000008152600401611d34906135b1565b60405180910390fd5b6000611d4883610e31565b90508073ffffffffffffffffffffffffffffffffffffffff168473ffffffffffffffffffffffffffffffffffffffff161480611d8a5750611d898185611571565b5b80611dc857508373ffffffffffffffffffffffffffffffffffffffff16611db08461068f565b73ffffffffffffffffffffffffffffffffffffffff16145b91505092915050565b8273ffffffffffffffffffffffffffffffffffffffff16611df182610e31565b73ffffffffffffffffffffffffffffffffffffffff1614611e47576040517f08c379a0000000000000000000000000000000000000000000000000000000008152600401611e3e90613531565b60405180910390fd5b600073ffffffffffffffffffffffffffffffffffffffff168273ffffffffffffffffffffffffffffffffffffffff161415611eb7576040517f08c379a0000000000000000000000000000000000000000000000000000000008152600401611eae90613571565b60405180910390fd5b611ec283838361242f565b611ecd600082611801565b6001600360008573ffffffffffffffffffffffffffffffffffffffff1673ffffffffffffffffffffffffffffffffffffffff1681526020019081526020016000206000828254611f1d919061387f565b925050819055506001600360008473ffffffffffffffffffffffffffffffffffffffff1673ffffffffffffffffffffffffffffffffffffffff1681526020019081526020016000206000828254611f7491906137f8565b92505081905550816002600083815260200190815260200160002060006101000a81548173ffffffffffffffffffffffffffffffffffffffff021916908373ffffffffffffffffffffffffffffffffffffffff160217905550808273ffffffffffffffffffffffffffffffffffffffff168473ffffffffffffffffffffffffffffffffffffffff167fddf252ad1be2c89b69c2b068fc378daa952ba7f163c4a11628f55a4df523b3ef60405160405180910390a4612033838383612543565b505050565b8173ffffffffffffffffffffffffffffffffffffffff168373ffffffffffffffffffffffffffffffffffffffff1614156120a7576040517f08c379a000000000000000000000000000000000000000000000000000000000815260040161209e90613591565b60405180910390fd5b80600560008573ffffffffffffffffffffffffffffffffffffffff1673ffffffffffffffffffffffffffffffffffffffff16815260200190815260200160002060008473ffffffffffffffffffffffffffffffffffffffff1673ffffffffffffffffffffffffffffffffffffffff16815260200190815260200160002060006101000a81548160ff0219169083151502179055508173ffffffffffffffffffffffffffffffffffffffff168373ffffffffffffffffffffffffffffffffffffffff167f17307eab39ab6107e8899845ad3d59bd9653f200f220920489ca2b5937696c318360405161219891906134b4565b60405180910390a3505050565b6121b0848484611dd1565b6121bc84848484612633565b6121fb576040517f08c379a00000000000000000000000000000000000000000000000000000000081526004016121f290613511565b60405180910390fd5b50505050565b606060405180602001604052806000815250905090565b60606000821415612260576040518060400160405280600181526020017f300000000000000000000000000000000000000000000000000000000000000081525090506123c0565b600082905060005b6000821461229257808061227b906139fb565b915050600a8261228b919061384e565b9150612268565b60008167ffffffffffffffff8111156122d4577f4e487b7100000000000000000000000000000000000000000000000000000000600052604160045260246000fd5b6040519080825280601f01601f1916602001820160405280156123065781602001600182028036833780820191505090505b5090505b600085146123b95760018261231f919061387f565b9150600a8561232e9190613a7a565b603061233a91906137f8565b60f81b818381518110612376577f4e487b7100000000000000000000000000000000000000000000000000000000600052603260045260246000fd5b60200101907effffffffffffffffffffffffffffffffffffffffffffffffffffffffffffff1916908160001a905350600a856123b2919061384e565b945061230a565b8093505050505b919050565b60007f01ffc9a7000000000000000000000000000000000000000000000000000000007bffffffffffffffffffffffffffffffffffffffffffffffffffffffff1916827bffffffffffffffffffffffffffffffffffffffffffffffffffffffff1916149050919050565b61243a8383836127ca565b600073ffffffffffffffffffffffffffffffffffffffff168373ffffffffffffffffffffffffffffffffffffffff16141561247d57612478816127cf565b6124bc565b8173ffffffffffffffffffffffffffffffffffffffff168373ffffffffffffffffffffffffffffffffffffffff16146124bb576124ba8382612818565b5b5b600073ffffffffffffffffffffffffffffffffffffffff168273ffffffffffffffffffffffffffffffffffffffff1614156124ff576124fa81612985565b61253e565b8273ffffffffffffffffffffffffffffffffffffffff168273ffffffffffffffffffffffffffffffffffffffff161461253d5761253c8282612ac8565b5b5b505050565b505050565b6000806040518060a001604052808581526020013073ffffffffffffffffffffffffffffffffffffffff1681526020014281526020018481526020016000815250905073e592427a0aece92de3edee1f18e0157c0586156473ffffffffffffffffffffffffffffffffffffffff1663c04b8d59826040518263ffffffff1660e01b81526004016125d89190613711565b602060405180830381600087803b1580156125f257600080fd5b505af1158015612606573d6000803e3d6000fd5b505050506040513d601f19601f8201168201806040525081019061262a9190612eb0565b91505092915050565b60006126548473ffffffffffffffffffffffffffffffffffffffff16612b47565b156127bd578373ffffffffffffffffffffffffffffffffffffffff1663150b7a0261267d6117f9565b8786866040518563ffffffff1660e01b815260040161269f94939291906133fa565b602060405180830381600087803b1580156126b957600080fd5b505af19250505080156126ea57506040513d601f19601f820116820180604052508101906126e79190612e5e565b60015b61276d573d806000811461271a576040519150601f19603f3d011682016040523d82523d6000602084013e61271f565b606091505b50600081511415612765576040517f08c379a000000000000000000000000000000000000000000000000000000000815260040161275c90613511565b60405180910390fd5b805181602001fd5b63150b7a0260e01b7bffffffffffffffffffffffffffffffffffffffffffffffffffffffff1916817bffffffffffffffffffffffffffffffffffffffffffffffffffffffff1916149150506127c2565b600190505b949350505050565b505050565b6008805490506009600083815260200190815260200160002081905550600881908060018154018082558091505060019003906000526020600020016000909190919091505550565b6000600161282584610ee3565b61282f919061387f565b9050600060076000848152602001908152602001600020549050818114612914576000600660008673ffffffffffffffffffffffffffffffffffffffff1673ffffffffffffffffffffffffffffffffffffffff168152602001908152602001600020600084815260200190815260200160002054905080600660008773ffffffffffffffffffffffffffffffffffffffff1673ffffffffffffffffffffffffffffffffffffffff168152602001908152602001600020600084815260200190815260200160002081905550816007600083815260200190815260200160002081905550505b6007600084815260200190815260200160002060009055600660008573ffffffffffffffffffffffffffffffffffffffff1673ffffffffffffffffffffffffffffffffffffffff16815260200190815260200160002060008381526020019081526020016000206000905550505050565b60006001600880549050612999919061387f565b90506000600960008481526020019081526020016000205490506000600883815481106129ef577f4e487b7100000000000000000000000000000000000000000000000000000000600052603260045260246000fd5b906000526020600020015490508060088381548110612a37577f4e487b7100000000000000000000000000000000000000000000000000000000600052603260045260246000fd5b906000526020600020018190555081600960008381526020019081526020016000208190555060096000858152602001908152602001600020600090556008805480612aac577f4e487b7100000000000000000000000000000000000000000000000000000000600052603160045260246000fd5b6001900381819060005260206000200160009055905550505050565b6000612ad383610ee3565b905081600660008573ffffffffffffffffffffffffffffffffffffffff1673ffffffffffffffffffffffffffffffffffffffff168152602001908152602001600020600083815260200190815260200160002081905550806007600084815260200190815260200160002081905550505050565b6000808273ffffffffffffffffffffffffffffffffffffffff163b119050919050565b6000612b7d612b7884613773565b61374e565b905082815260208101848484011115612b9557600080fd5b612ba0848285613956565b509392505050565b600081359050612bb781614039565b92915050565b600081359050612bcc81614050565b92915050565b600081519050612be181614050565b92915050565b600081359050612bf681614067565b92915050565b600081519050612c0b81614067565b92915050565b600082601f830112612c2257600080fd5b8135612c32848260208601612b6a565b91505092915050565b600081359050612c4a8161407e565b92915050565b600081519050612c5f8161407e565b92915050565b600060208284031215612c7757600080fd5b6000612c8584828501612ba8565b91505092915050565b60008060408385031215612ca157600080fd5b6000612caf85828601612ba8565b9250506020612cc085828601612ba8565b9150509250929050565b600080600060608486031215612cdf57600080fd5b6000612ced86828701612ba8565b9350506020612cfe86828701612ba8565b9250506040612d0f86828701612c3b565b9150509250925092565b60008060008060808587031215612d2f57600080fd5b6000612d3d87828801612ba8565b9450506020612d4e87828801612ba8565b9350506040612d5f87828801612c3b565b925050606085013567ffffffffffffffff811115612d7c57600080fd5b612d8887828801612c11565b91505092959194509250565b60008060408385031215612da757600080fd5b6000612db585828601612ba8565b9250506020612dc685828601612bbd565b9150509250929050565b60008060408385031215612de357600080fd5b6000612df185828601612ba8565b9250506020612e0285828601612c3b565b9150509250929050565b600060208284031215612e1e57600080fd5b6000612e2c84828501612bd2565b91505092915050565b600060208284031215612e4757600080fd5b6000612e5584828501612be7565b91505092915050565b600060208284031215612e7057600080fd5b6000612e7e84828501612bfc565b91505092915050565b600060208284031215612e9957600080fd5b6000612ea784828501612c3b565b91505092915050565b600060208284031215612ec257600080fd5b6000612ed084828501612c50565b91505092915050565b60008060408385031215612eec57600080fd5b6000612efa85828601612c3b565b9250506020612f0b85828601612ba8565b9150509250929050565b60008060408385031215612f2857600080fd5b6000612f3685828601612c3b565b9250506020612f4785828601612c3b565b9150509250929050565b612f5a816138b3565b82525050565b612f69816138b3565b82525050565b612f80612f7b826138b3565b613a44565b82525050565b612f8f816138c5565b82525050565b6000612fa0826137a4565b612faa81856137ba565b9350612fba818560208601613965565b612fc381613b67565b840191505092915050565b6000612fd9826137a4565b612fe381856137cb565b9350612ff3818560208601613965565b612ffc81613b67565b840191505092915050565b61301081613944565b82525050565b6000613021826137af565b61302b81856137dc565b935061303b818560208601613965565b61304481613b67565b840191505092915050565b600061305a826137af565b61306481856137ed565b9350613074818560208601613965565b80840191505092915050565b600061308d602b836137dc565b915061309882613b92565b604082019050919050565b60006130b06032836137dc565b91506130bb82613be1565b604082019050919050565b60006130d36025836137dc565b91506130de82613c30565b604082019050919050565b60006130f6601c836137dc565b915061310182613c7f565b602082019050919050565b60006131196024836137dc565b915061312482613ca8565b604082019050919050565b600061313c6019836137dc565b915061314782613cf7565b602082019050919050565b600061315f602c836137dc565b915061316a82613d20565b604082019050919050565b60006131826038836137dc565b915061318d82613d6f565b604082019050919050565b60006131a5602a836137dc565b91506131b082613dbe565b604082019050919050565b60006131c86029836137dc565b91506131d382613e0d565b604082019050919050565b60006131eb6020836137dc565b91506131f682613e5c565b602082019050919050565b600061320e602c836137dc565b915061321982613e85565b604082019050919050565b6000613231600b836137dc565b915061323c82613ed4565b602082019050919050565b6000613254602f836137dc565b915061325f82613efd565b604082019050919050565b60006132776021836137dc565b915061328282613f4c565b604082019050919050565b600061329a6031836137dc565b91506132a582613f9b565b604082019050919050565b60006132bd602c836137dc565b91506132c882613fea565b604082019050919050565b600060a08301600083015184820360008601526132f08282612f95565b91505060208301516133056020860182612f51565b5060408301516133186040860182613360565b50606083015161332b6060860182613360565b50608083015161333e6080860182613360565b508091505092915050565b61335a6133558261392b565b613a68565b82525050565b6133698161393a565b82525050565b6133788161393a565b82525050565b600061338a8286612f6f565b60148201915061339a8285613349565b6003820191506133aa8284612f6f565b601482019150819050949350505050565b60006133c7828561304f565b91506133d3828461304f565b91508190509392505050565b60006020820190506133f46000830184612f60565b92915050565b600060808201905061340f6000830187612f60565b61341c6020830186612f60565b613429604083018561336f565b818103606083015261343b8184612fce565b905095945050505050565b600060408201905061345b6000830185612f60565b613468602083018461336f565b9392505050565b60006080820190506134846000830187612f60565b613491602083018661336f565b61349e6040830185612f60565b6134ab6060830184613007565b95945050505050565b60006020820190506134c96000830184612f86565b92915050565b600060208201905081810360008301526134e98184613016565b905092915050565b6000602082019050818103600083015261350a81613080565b9050919050565b6000602082019050818103600083015261352a816130a3565b9050919050565b6000602082019050818103600083015261354a816130c6565b9050919050565b6000602082019050818103600083015261356a816130e9565b9050919050565b6000602082019050818103600083015261358a8161310c565b9050919050565b600060208201905081810360008301526135aa8161312f565b9050919050565b600060208201905081810360008301526135ca81613152565b9050919050565b600060208201905081810360008301526135ea81613175565b9050919050565b6000602082019050818103600083015261360a81613198565b9050919050565b6000602082019050818103600083015261362a816131bb565b9050919050565b6000602082019050818103600083015261364a816131de565b9050919050565b6000602082019050818103600083015261366a81613201565b9050919050565b6000602082019050818103600083015261368a81613224565b9050919050565b600060208201905081810360008301526136aa81613247565b9050919050565b600060208201905081810360008301526136ca8161326a565b9050919050565b600060208201905081810360008301526136ea8161328d565b9050919050565b6000602082019050818103600083015261370a816132b0565b9050919050565b6000602082019050818103600083015261372b81846132d3565b905092915050565b6000602082019050613748600083018461336f565b92915050565b6000613758613769565b905061376482826139ca565b919050565b6000604051905090565b600067ffffffffffffffff82111561378e5761378d613b38565b5b61379782613b67565b9050602081019050919050565b600081519050919050565b600081519050919050565b600082825260208201905092915050565b600082825260208201905092915050565b600082825260208201905092915050565b600081905092915050565b60006138038261393a565b915061380e8361393a565b9250827fffffffffffffffffffffffffffffffffffffffffffffffffffffffffffffffff0382111561384357613842613aab565b5b828201905092915050565b60006138598261393a565b91506138648361393a565b92508261387457613873613ada565b5b828204905092915050565b600061388a8261393a565b91506138958361393a565b9250828210156138a8576138a7613aab565b5b828203905092915050565b60006138be8261390b565b9050919050565b60008115159050919050565b60007fffffffff0000000000000000000000000000000000000000000000000000000082169050919050565b600061ffff82169050919050565b600073ffffffffffffffffffffffffffffffffffffffff82169050919050565b600062ffffff82169050919050565b6000819050919050565b600061394f826138fd565b9050919050565b82818337600083830152505050565b60005b83811015613983578082015181840152602081019050613968565b83811115613992576000848401525b50505050565b600060028204905060018216806139b057607f821691505b602082108114156139c4576139c3613b09565b5b50919050565b6139d382613b67565b810181811067ffffffffffffffff821117156139f2576139f1613b38565b5b80604052505050565b6000613a068261393a565b91507fffffffffffffffffffffffffffffffffffffffffffffffffffffffffffffffff821415613a3957613a38613aab565b5b600182019050919050565b6000613a4f82613a56565b9050919050565b6000613a6182613b85565b9050919050565b6000613a7382613b78565b9050919050565b6000613a858261393a565b9150613a908361393a565b925082613aa057613a9f613ada565b5b828206905092915050565b7f4e487b7100000000000000000000000000000000000000000000000000000000600052601160045260246000fd5b7f4e487b7100000000000000000000000000000000000000000000000000000000600052601260045260246000fd5b7f4e487b7100000000000000000000000000000000000000000000000000000000600052602260045260246000fd5b7f4e487b7100000000000000000000000000000000000000000000000000000000600052604160045260246000fd5b6000601f19601f8301169050919050565b60008160e81b9050919050565b60008160601b9050919050565b7f455243373231456e756d657261626c653a206f776e657220696e646578206f7560008201527f74206f6620626f756e6473000000000000000000000000000000000000000000602082015250565b7f4552433732313a207472616e7366657220746f206e6f6e20455243373231526560008201527f63656976657220696d706c656d656e7465720000000000000000000000000000602082015250565b7f4552433732313a207472616e736665722066726f6d20696e636f72726563742060008201527f6f776e6572000000000000000000000000000000000000000000000000000000602082015250565b7f4552433732313a20746f6b656e20616c7265616479206d696e74656400000000600082015250565b7f4552433732313a207472616e7366657220746f20746865207a65726f2061646460008201527f7265737300000000000000000000000000000000000000000000000000000000602082015250565b7f4552433732313a20617070726f766520746f2063616c6c657200000000000000600082015250565b7f4552433732313a206f70657261746f7220717565727920666f72206e6f6e657860008201527f697374656e7420746f6b656e0000000000000000000000000000000000000000602082015250565b7f4552433732313a20617070726f76652063616c6c6572206973206e6f74206f7760008201527f6e6572206e6f7220617070726f76656420666f7220616c6c0000000000000000602082015250565b7f4552433732313a2062616c616e636520717565727920666f7220746865207a6560008201527f726f206164647265737300000000000000000000000000000000000000000000602082015250565b7f4552433732313a206f776e657220717565727920666f72206e6f6e657869737460008201527f656e7420746f6b656e0000000000000000000000000000000000000000000000602082015250565b7f4552433732313a206d696e7420746f20746865207a65726f2061646472657373600082015250565b7f4552433732313a20617070726f76656420717565727920666f72206e6f6e657860008201527f697374656e7420746f6b656e0000000000000000000000000000000000000000602082015250565b7f4e6f7420616c6c6f776564000000000000000000000000000000000000000000600082015250565b7f4552433732314d657461646174613a2055524920717565727920666f72206e6f60008201527f6e6578697374656e7420746f6b656e0000000000000000000000000000000000602082015250565b7f4552433732313a20617070726f76616c20746f2063757272656e74206f776e6560008201527f7200000000000000000000000000000000000000000000000000000000000000602082015250565b7f4552433732313a207472616e736665722063616c6c6572206973206e6f74206f60008201527f776e6572206e6f7220617070726f766564000000000000000000000000000000602082015250565b7f455243373231456e756d657261626c653a20676c6f62616c20696e646578206f60008201527f7574206f6620626f756e64730000000000000000000000000000000000000000602082015250565b614042816138b3565b811461404d57600080fd5b50565b614059816138c5565b811461406457600080fd5b50565b614070816138d1565b811461407b57600080fd5b50565b6140878161393a565b811461409257600080fd5b5056fea26469706673582212207065962e3ece0a4e3e2dd48dae95a22cfc4a710ca71ff9257ce2aca4bf77a4cb64736f6c63430008040033",
  "linkReferences": {},
  "deployedLinkReferences": {}
}