{
  "_format": "hh-sol-artifact-1",
  "contractName": "GoodieBag",
  "sourceName": "contracts/GoodieBag.sol",
  "abi": [
    {
      "inputs": [],
      "stateMutability": "nonpayable",
      "type": "constructor"
    },
    {
      "anonymous": false,
      "inputs": [
        {
          "indexed": true,
          "internalType": "address",
          "name": "owner",
          "type": "address"
        },
        {
          "indexed": true,
          "internalType": "address",
          "name": "approved",
          "type": "address"
        },
        {
          "indexed": true,
          "internalType": "uint256",
          "name": "tokenId",
          "type": "uint256"
        }
      ],
      "name": "Approval",
      "type": "event"
    },
    {
      "anonymous": false,
      "inputs": [
        {
          "indexed": true,
          "internalType": "address",
          "name": "owner",
          "type": "address"
        },
        {
          "indexed": true,
          "internalType": "address",
          "name": "operator",
          "type": "address"
        },
        {
          "indexed": false,
          "internalType": "bool",
          "name": "approved",
          "type": "bool"
        }
      ],
      "name": "ApprovalForAll",
      "type": "event"
    },
    {
      "anonymous": false,
      "inputs": [
        {
          "indexed": true,
          "internalType": "address",
          "name": "to",
          "type": "address"
        },
        {
          "indexed": true,
          "internalType": "uint256",
          "name": "tokenId",
          "type": "uint256"
        }
      ],
      "name": "Redeem",
      "type": "event"
    },
    {
      "anonymous": false,
      "inputs": [
        {
          "indexed": true,
          "internalType": "address",
          "name": "from",
          "type": "address"
        },
        {
          "indexed": true,
          "internalType": "address",
          "name": "to",
          "type": "address"
        },
        {
          "indexed": true,
          "internalType": "uint256",
          "name": "tokenId",
          "type": "uint256"
        }
      ],
      "name": "Transfer",
      "type": "event"
    },
    {
      "inputs": [
        {
          "internalType": "address",
          "name": "to",
          "type": "address"
        },
        {
          "internalType": "uint256",
          "name": "tokenId",
          "type": "uint256"
        }
      ],
      "name": "approve",
      "outputs": [],
      "stateMutability": "nonpayable",
      "type": "function"
    },
    {
      "inputs": [
        {
          "internalType": "address",
          "name": "owner",
          "type": "address"
        }
      ],
      "name": "balanceOf",
      "outputs": [
        {
          "internalType": "uint256",
          "name": "",
          "type": "uint256"
        }
      ],
      "stateMutability": "view",
      "type": "function"
    },
    {
      "inputs": [
        {
          "internalType": "uint256",
          "name": "tokenId",
          "type": "uint256"
        }
      ],
      "name": "getApproved",
      "outputs": [
        {
          "internalType": "address",
          "name": "",
          "type": "address"
        }
      ],
      "stateMutability": "view",
      "type": "function"
    },
    {
      "inputs": [
        {
          "internalType": "uint256",
          "name": "nft",
          "type": "uint256"
        },
        {
          "internalType": "uint256",
          "name": "index",
          "type": "uint256"
        }
      ],
      "name": "getNFTTokenAddress",
      "outputs": [
        {
          "internalType": "address",
          "name": "",
          "type": "address"
        }
      ],
      "stateMutability": "view",
      "type": "function"
    },
    {
      "inputs": [
        {
          "internalType": "uint256",
          "name": "nft",
          "type": "uint256"
        },
        {
          "internalType": "address",
          "name": "tokenAddress",
          "type": "address"
        }
      ],
      "name": "getNFTTokenBalance",
      "outputs": [
        {
          "internalType": "uint256",
          "name": "",
          "type": "uint256"
        }
      ],
      "stateMutability": "view",
      "type": "function"
    },
    {
      "inputs": [
        {
          "internalType": "uint256",
          "name": "nft",
          "type": "uint256"
        }
      ],
      "name": "getNFTTokenCount",
      "outputs": [
        {
          "internalType": "uint256",
          "name": "",
          "type": "uint256"
        }
      ],
      "stateMutability": "view",
      "type": "function"
    },
    {
      "inputs": [
        {
          "internalType": "address",
          "name": "owner",
          "type": "address"
        },
        {
          "internalType": "address",
          "name": "operator",
          "type": "address"
        }
      ],
      "name": "isApprovedForAll",
      "outputs": [
        {
          "internalType": "bool",
          "name": "",
          "type": "bool"
        }
      ],
      "stateMutability": "view",
      "type": "function"
    },
    {
      "inputs": [],
      "name": "mint",
      "outputs": [],
      "stateMutability": "payable",
      "type": "function"
    },
    {
      "inputs": [],
      "name": "name",
      "outputs": [
        {
          "internalType": "string",
          "name": "",
          "type": "string"
        }
      ],
      "stateMutability": "view",
      "type": "function"
    },
    {
      "inputs": [
        {
          "internalType": "uint256",
          "name": "tokenId",
          "type": "uint256"
        }
      ],
      "name": "ownerOf",
      "outputs": [
        {
          "internalType": "address",
          "name": "",
          "type": "address"
        }
      ],
      "stateMutability": "view",
      "type": "function"
    },
    {
      "inputs": [
        {
          "internalType": "uint256",
          "name": "nft",
          "type": "uint256"
        }
      ],
      "name": "redeem",
      "outputs": [],
      "stateMutability": "nonpayable",
      "type": "function"
    },
    {
      "inputs": [
        {
          "internalType": "uint256",
          "name": "nft",
          "type": "uint256"
        },
        {
          "internalType": "address",
          "name": "tokenAddress",
          "type": "address"
        }
      ],
      "name": "redeemToken",
      "outputs": [],
      "stateMutability": "nonpayable",
      "type": "function"
    },
    {
      "inputs": [
        {
          "internalType": "address",
          "name": "from",
          "type": "address"
        },
        {
          "internalType": "address",
          "name": "to",
          "type": "address"
        },
        {
          "internalType": "uint256",
          "name": "tokenId",
          "type": "uint256"
        }
      ],
      "name": "safeTransferFrom",
      "outputs": [],
      "stateMutability": "nonpayable",
      "type": "function"
    },
    {
      "inputs": [
        {
          "internalType": "address",
          "name": "from",
          "type": "address"
        },
        {
          "internalType": "address",
          "name": "to",
          "type": "address"
        },
        {
          "internalType": "uint256",
          "name": "tokenId",
          "type": "uint256"
        },
        {
          "internalType": "bytes",
          "name": "_data",
          "type": "bytes"
        }
      ],
      "name": "safeTransferFrom",
      "outputs": [],
      "stateMutability": "nonpayable",
      "type": "function"
    },
    {
      "inputs": [
        {
          "internalType": "address",
          "name": "operator",
          "type": "address"
        },
        {
          "internalType": "bool",
          "name": "approved",
          "type": "bool"
        }
      ],
      "name": "setApprovalForAll",
      "outputs": [],
      "stateMutability": "nonpayable",
      "type": "function"
    },
    {
      "inputs": [
        {
          "internalType": "bytes4",
          "name": "interfaceId",
          "type": "bytes4"
        }
      ],
      "name": "supportsInterface",
      "outputs": [
        {
          "internalType": "bool",
          "name": "",
          "type": "bool"
        }
      ],
      "stateMutability": "view",
      "type": "function"
    },
    {
      "inputs": [],
      "name": "symbol",
      "outputs": [
        {
          "internalType": "string",
          "name": "",
          "type": "string"
        }
      ],
      "stateMutability": "view",
      "type": "function"
    },
    {
      "inputs": [
        {
          "internalType": "uint256",
          "name": "index",
          "type": "uint256"
        }
      ],
      "name": "tokenByIndex",
      "outputs": [
        {
          "internalType": "uint256",
          "name": "",
          "type": "uint256"
        }
      ],
      "stateMutability": "view",
      "type": "function"
    },
    {
      "inputs": [
        {
          "internalType": "address",
          "name": "owner",
          "type": "address"
        },
        {
          "internalType": "uint256",
          "name": "index",
          "type": "uint256"
        }
      ],
      "name": "tokenOfOwnerByIndex",
      "outputs": [
        {
          "internalType": "uint256",
          "name": "",
          "type": "uint256"
        }
      ],
      "stateMutability": "view",
      "type": "function"
    },
    {
      "inputs": [
        {
          "internalType": "uint256",
          "name": "tokenId",
          "type": "uint256"
        }
      ],
      "name": "tokenURI",
      "outputs": [
        {
          "internalType": "string",
          "name": "",
          "type": "string"
        }
      ],
      "stateMutability": "view",
      "type": "function"
    },
    {
      "inputs": [],
      "name": "totalSupply",
      "outputs": [
        {
          "internalType": "uint256",
          "name": "",
          "type": "uint256"
        }
      ],
      "stateMutability": "view",
      "type": "function"
    },
    {
      "inputs": [
        {
          "internalType": "address",
          "name": "from",
          "type": "address"
        },
        {
          "internalType": "address",
          "name": "to",
          "type": "address"
        },
        {
          "internalType": "uint256",
          "name": "tokenId",
          "type": "uint256"
        }
      ],
      "name": "transferFrom",
      "outputs": [],
      "stateMutability": "nonpayable",
      "type": "function"
    }
  ],
  "bytecode": "0x60806040523480156200001157600080fd5b506040518060400160405280600981526020017f476f6f64696542616700000000000000000000000000000000000000000000008152506040518060400160405280600481526020017f4742616700000000000000000000000000000000000000000000000000000000815250816000908051906020019062000096929190620000b8565b508060019080519060200190620000af929190620000b8565b505050620001cd565b828054620000c69062000168565b90600052602060002090601f016020900481019282620000ea576000855562000136565b82601f106200010557805160ff191683800117855562000136565b8280016001018555821562000136579182015b828111156200013557825182559160200191906001019062000118565b5b50905062000145919062000149565b5090565b5b80821115620001645760008160009055506001016200014a565b5090565b600060028204905060018216806200018157607f821691505b602082108114156200019857620001976200019e565b5b50919050565b7f4e487b7100000000000000000000000000000000000000000000000000000000600052602260045260246000fd5b61431480620001dd6000396000f3fe6080604052600436106101355760003560e01c80636352211e116100ab578063c3501ff61161006f578063c3501ff61461043d578063c87b56dd14610466578063db006a75146104a3578063e985e9c5146104cc578063e9fee71114610509578063eb9794391461054657610135565b80636352211e1461034657806370a082311461038357806395d89b41146103c0578063a22cb465146103eb578063b88d4fde1461041457610135565b80631249c58b116100fd5780631249c58b1461024557806318160ddd1461024f57806323b872dd1461027a5780632f745c59146102a357806342842e0e146102e05780634f6ccce71461030957610135565b806301ffc9a71461013a57806306fdde0314610177578063081812fc146101a2578063095ea7b3146101df57806310c6d8ef14610208575b600080fd5b34801561014657600080fd5b50610161600480360381019061015c9190613024565b610583565b60405161016e91906136a3565b60405180910390f35b34801561018357600080fd5b5061018c6105fd565b60405161019991906136be565b60405180910390f35b3480156101ae57600080fd5b506101c960048036038101906101c49190613076565b61068f565b6040516101d691906135ce565b60405180910390f35b3480156101eb57600080fd5b5061020660048036038101906102019190612fbf565b610714565b005b34801561021457600080fd5b5061022f600480360381019061022a91906130c8565b61082c565b60405161023c9190613922565b60405180910390f35b61024d610988565b005b34801561025b57600080fd5b50610264610d66565b6040516102719190613922565b60405180910390f35b34801561028657600080fd5b506102a1600480360381019061029c9190612eb9565b610d73565b005b3480156102af57600080fd5b506102ca60048036038101906102c59190612fbf565b610dd3565b6040516102d79190613922565b60405180910390f35b3480156102ec57600080fd5b5061030760048036038101906103029190612eb9565b610e78565b005b34801561031557600080fd5b50610330600480360381019061032b9190613076565b610e98565b60405161033d9190613922565b60405180910390f35b34801561035257600080fd5b5061036d60048036038101906103689190613076565b610f2f565b60405161037a91906135ce565b60405180910390f35b34801561038f57600080fd5b506103aa60048036038101906103a59190612e54565b610fe1565b6040516103b79190613922565b60405180910390f35b3480156103cc57600080fd5b506103d5611099565b6040516103e291906136be565b60405180910390f35b3480156103f757600080fd5b50610412600480360381019061040d9190612f83565b61112b565b005b34801561042057600080fd5b5061043b60048036038101906104369190612f08565b611141565b005b34801561044957600080fd5b50610464600480360381019061045f91906130c8565b6111a3565b005b34801561047257600080fd5b5061048d60048036038101906104889190613076565b611239565b60405161049a91906136be565b60405180910390f35b3480156104af57600080fd5b506104ca60048036038101906104c59190613076565b6112e0565b005b3480156104d857600080fd5b506104f360048036038101906104ee9190612e7d565b611425565b60405161050091906136a3565b60405180910390f35b34801561051557600080fd5b50610530600480360381019061052b9190613076565b6114b9565b60405161053d9190613922565b60405180910390f35b34801561055257600080fd5b5061056d60048036038101906105689190613104565b6114dc565b60405161057a91906135ce565b60405180910390f35b60007f780e9d63000000000000000000000000000000000000000000000000000000007bffffffffffffffffffffffffffffffffffffffffffffffffffffffff1916827bffffffffffffffffffffffffffffffffffffffffffffffffffffffff191614806105f657506105f58261155f565b5b9050919050565b60606000805461060c90613be1565b80601f016020809104026020016040519081016040528092919081815260200182805461063890613be1565b80156106855780601f1061065a57610100808354040283529160200191610685565b820191906000526020600020905b81548152906001019060200180831161066857829003601f168201915b5050505050905090565b600061069a82611641565b6106d9576040517f08c379a00000000000000000000000000000000000000000000000000000000081526004016106d090613840565b60405180910390fd5b6004600083815260200190815260200160002060009054906101000a900473ffffffffffffffffffffffffffffffffffffffff169050919050565b600061071f82610f2f565b90508073ffffffffffffffffffffffffffffffffffffffff168373ffffffffffffffffffffffffffffffffffffffff161415610790576040517f08c379a0000000000000000000000000000000000000000000000000000000008152600401610787906138a0565b60405180910390fd5b8073ffffffffffffffffffffffffffffffffffffffff166107af6116ad565b73ffffffffffffffffffffffffffffffffffffffff1614806107de57506107dd816107d86116ad565b611425565b5b61081d576040517f08c379a0000000000000000000000000000000000000000000000000000000008152600401610814906137c0565b60405180910390fd5b61082783836116b5565b505050565b600080600b600085815260200190815260200160002060010160008473ffffffffffffffffffffffffffffffffffffffff1673ffffffffffffffffffffffffffffffffffffffff1681526020019081526020016000205490506000600c60008573ffffffffffffffffffffffffffffffffffffffff1673ffffffffffffffffffffffffffffffffffffffff16815260200190815260200160002054905060008473ffffffffffffffffffffffffffffffffffffffff166370a08231306040518263ffffffff1660e01b815260040161090491906135ce565b60206040518083038186803b15801561091c57600080fd5b505afa158015610930573d6000803e3d6000fd5b505050506040513d601f19601f82011682018060405250810190610954919061309f565b90506000821161096557600061097d565b8181846109729190613a6e565b61097c9190613a3d565b5b935050505092915050565b6000341161099557600080fd5b730d500b1d8e8ef31e21c99d1db9a6444d3adf127073ffffffffffffffffffffffffffffffffffffffff1663d0e30db0346040518263ffffffff1660e01b81526004016000604051808303818588803b1580156109f157600080fd5b505af1158015610a05573d6000803e3d6000fd5b50505050506000610a16600a61176e565b9050610a22600a61177c565b610a2c3382611792565b610a5781730d500b1d8e8ef31e21c99d1db9a6444d3adf1270600334610a529190613a3d565b61196c565b6000610a6e600334610a699190613a3d565b611ae7565b9050610a8f82737ceb23fd6bc0add59e62ac25578270cff1b9f6198361196c565b730d500b1d8e8ef31e21c99d1db9a6444d3adf127073ffffffffffffffffffffffffffffffffffffffff1663095ea7b373794a61358d6845594f94dc1db02a252b5b4814ad600334610ae19190613a3d565b6040518363ffffffff1660e01b8152600401610afe929190613635565b602060405180830381600087803b158015610b1857600080fd5b505af1158015610b2c573d6000803e3d6000fd5b505050506040513d601f19601f82011682018060405250810190610b509190612ffb565b506000736d80113e533a2c0fe82eabd35f1875dcea89ea9773ffffffffffffffffffffffffffffffffffffffff166370a08231306040518263ffffffff1660e01b8152600401610ba091906135ce565b60206040518083038186803b158015610bb857600080fd5b505afa158015610bcc573d6000803e3d6000fd5b505050506040513d601f19601f82011682018060405250810190610bf0919061309f565b905073794a61358d6845594f94dc1db02a252b5b4814ad73ffffffffffffffffffffffffffffffffffffffff1663e8eda9df730d500b1d8e8ef31e21c99d1db9a6444d3adf1270600334610c449190613a3d565b3060006040518563ffffffff1660e01b8152600401610c66949392919061365e565b600060405180830381600087803b158015610c8057600080fd5b505af1158015610c94573d6000803e3d6000fd5b5050505080736d80113e533a2c0fe82eabd35f1875dcea89ea9773ffffffffffffffffffffffffffffffffffffffff166370a08231306040518263ffffffff1660e01b8152600401610ce691906135ce565b60206040518083038186803b158015610cfe57600080fd5b505afa158015610d12573d6000803e3d6000fd5b505050506040513d601f19601f82011682018060405250810190610d36919061309f565b610d409190613ac8565b9050610d6183736d80113e533a2c0fe82eabd35f1875dcea89ea978361196c565b505050565b6000600880549050905090565b610d84610d7e6116ad565b82611bfd565b610dc3576040517f08c379a0000000000000000000000000000000000000000000000000000000008152600401610dba906138c0565b60405180910390fd5b610dce838383611cdb565b505050565b6000610dde83610fe1565b8210610e1f576040517f08c379a0000000000000000000000000000000000000000000000000000000008152600401610e16906136e0565b60405180910390fd5b600660008473ffffffffffffffffffffffffffffffffffffffff1673ffffffffffffffffffffffffffffffffffffffff168152602001908152602001600020600083815260200190815260200160002054905092915050565b610e9383838360405180602001604052806000815250611141565b505050565b6000610ea2610d66565b8210610ee3576040517f08c379a0000000000000000000000000000000000000000000000000000000008152600401610eda906138e0565b60405180910390fd5b60088281548110610f1d577f4e487b7100000000000000000000000000000000000000000000000000000000600052603260045260246000fd5b90600052602060002001549050919050565b6000806002600084815260200190815260200160002060009054906101000a900473ffffffffffffffffffffffffffffffffffffffff169050600073ffffffffffffffffffffffffffffffffffffffff168173ffffffffffffffffffffffffffffffffffffffff161415610fd8576040517f08c379a0000000000000000000000000000000000000000000000000000000008152600401610fcf90613800565b60405180910390fd5b80915050919050565b60008073ffffffffffffffffffffffffffffffffffffffff168273ffffffffffffffffffffffffffffffffffffffff161415611052576040517f08c379a0000000000000000000000000000000000000000000000000000000008152600401611049906137e0565b60405180910390fd5b600360008373ffffffffffffffffffffffffffffffffffffffff1673ffffffffffffffffffffffffffffffffffffffff168152602001908152602001600020549050919050565b6060600180546110a890613be1565b80601f01602080910402602001604051908101604052809291908181526020018280546110d490613be1565b80156111215780601f106110f657610100808354040283529160200191611121565b820191906000526020600020905b81548152906001019060200180831161110457829003601f168201915b5050505050905090565b61113d6111366116ad565b8383611f42565b5050565b61115261114c6116ad565b83611bfd565b611191576040517f08c379a0000000000000000000000000000000000000000000000000000000008152600401611188906138c0565b60405180910390fd5b61119d848484846120af565b50505050565b6111ac82611641565b6111b557600080fd5b3373ffffffffffffffffffffffffffffffffffffffff166111d583610f2f565b73ffffffffffffffffffffffffffffffffffffffff161461122b576040517f08c379a000000000000000000000000000000000000000000000000000000000815260040161122290613860565b60405180910390fd5b611235828261210b565b5050565b606061124482611641565b611283576040517f08c379a000000000000000000000000000000000000000000000000000000000815260040161127a90613880565b60405180910390fd5b600061128d6123f0565b905060008151116112ad57604051806020016040528060008152506112d8565b806112b784612407565b6040516020016112c89291906135aa565b6040516020818303038152906040525b915050919050565b6112e981611641565b6112f257600080fd5b3373ffffffffffffffffffffffffffffffffffffffff1661131282610f2f565b73ffffffffffffffffffffffffffffffffffffffff1614611368576040517f08c379a000000000000000000000000000000000000000000000000000000000815260040161135f90613860565b60405180910390fd5b60005b600b6000838152602001908152602001600020600001805490508110156114215761140e82600b600085815260200190815260200160002060000183815481106113de577f4e487b7100000000000000000000000000000000000000000000000000000000600052603260045260246000fd5b9060005260206000200160009054906101000a900473ffffffffffffffffffffffffffffffffffffffff1661210b565b808061141990613c44565b91505061136b565b5050565b6000600560008473ffffffffffffffffffffffffffffffffffffffff1673ffffffffffffffffffffffffffffffffffffffff16815260200190815260200160002060008373ffffffffffffffffffffffffffffffffffffffff1673ffffffffffffffffffffffffffffffffffffffff16815260200190815260200160002060009054906101000a900460ff16905092915050565b6000600b6000838152602001908152602001600020600001805490509050919050565b6000600b6000848152602001908152602001600020600001828154811061152c577f4e487b7100000000000000000000000000000000000000000000000000000000600052603260045260246000fd5b9060005260206000200160009054906101000a900473ffffffffffffffffffffffffffffffffffffffff16905092915050565b60007f80ac58cd000000000000000000000000000000000000000000000000000000007bffffffffffffffffffffffffffffffffffffffffffffffffffffffff1916827bffffffffffffffffffffffffffffffffffffffffffffffffffffffff1916148061162a57507f5b5e139f000000000000000000000000000000000000000000000000000000007bffffffffffffffffffffffffffffffffffffffffffffffffffffffff1916827bffffffffffffffffffffffffffffffffffffffffffffffffffffffff1916145b8061163a5750611639826125b4565b5b9050919050565b60008073ffffffffffffffffffffffffffffffffffffffff166002600084815260200190815260200160002060009054906101000a900473ffffffffffffffffffffffffffffffffffffffff1673ffffffffffffffffffffffffffffffffffffffff1614159050919050565b600033905090565b816004600083815260200190815260200160002060006101000a81548173ffffffffffffffffffffffffffffffffffffffff021916908373ffffffffffffffffffffffffffffffffffffffff160217905550808273ffffffffffffffffffffffffffffffffffffffff1661172883610f2f565b73ffffffffffffffffffffffffffffffffffffffff167f8c5be1e5ebec7d5bd14f71427d1e84f3dd0314c0f7b2291e5b200ac8c7c3b92560405160405180910390a45050565b600081600001549050919050565b6001816000016000828254019250508190555050565b600073ffffffffffffffffffffffffffffffffffffffff168273ffffffffffffffffffffffffffffffffffffffff161415611802576040517f08c379a00000000000000000000000000000000000000000000000000000000081526004016117f990613820565b60405180910390fd5b61180b81611641565b1561184b576040517f08c379a000000000000000000000000000000000000000000000000000000000815260040161184290613740565b60405180910390fd5b6118576000838361261e565b6001600360008473ffffffffffffffffffffffffffffffffffffffff1673ffffffffffffffffffffffffffffffffffffffff16815260200190815260200160002060008282546118a791906139e7565b92505081905550816002600083815260200190815260200160002060006101000a81548173ffffffffffffffffffffffffffffffffffffffff021916908373ffffffffffffffffffffffffffffffffffffffff160217905550808273ffffffffffffffffffffffffffffffffffffffff16600073ffffffffffffffffffffffffffffffffffffffff167fddf252ad1be2c89b69c2b068fc378daa952ba7f163c4a11628f55a4df523b3ef60405160405180910390a461196860008383612732565b5050565b6000600b6000858152602001908152602001600020905060008160010160008573ffffffffffffffffffffffffffffffffffffffff1673ffffffffffffffffffffffffffffffffffffffff168152602001908152602001600020541415611a335780600001839080600181540180825580915050600190039060005260206000200160009091909190916101000a81548173ffffffffffffffffffffffffffffffffffffffff021916908373ffffffffffffffffffffffffffffffffffffffff1602179055505b818160010160008573ffffffffffffffffffffffffffffffffffffffff1673ffffffffffffffffffffffffffffffffffffffff1681526020019081526020016000206000828254611a8491906139e7565b9250508190555081600c60008573ffffffffffffffffffffffffffffffffffffffff1673ffffffffffffffffffffffffffffffffffffffff1681526020019081526020016000206000828254611ada91906139e7565b9250508190555050505050565b6000730d500b1d8e8ef31e21c99d1db9a6444d3adf127073ffffffffffffffffffffffffffffffffffffffff1663095ea7b373e592427a0aece92de3edee1f18e0157c05861564846040518363ffffffff1660e01b8152600401611b4c929190613635565b602060405180830381600087803b158015611b6657600080fd5b505af1158015611b7a573d6000803e3d6000fd5b505050506040513d601f19601f82011682018060405250810190611b9e9190612ffb565b50611bf6730d500b1d8e8ef31e21c99d1db9a6444d3adf12706101f4737ceb23fd6bc0add59e62ac25578270cff1b9f619604051602001611be19392919061356d565b60405160208183030381529060405283612737565b9050919050565b6000611c0882611641565b611c47576040517f08c379a0000000000000000000000000000000000000000000000000000000008152600401611c3e906137a0565b60405180910390fd5b6000611c5283610f2f565b90508073ffffffffffffffffffffffffffffffffffffffff168473ffffffffffffffffffffffffffffffffffffffff161480611c945750611c938185611425565b5b80611cd257508373ffffffffffffffffffffffffffffffffffffffff16611cba8461068f565b73ffffffffffffffffffffffffffffffffffffffff16145b91505092915050565b8273ffffffffffffffffffffffffffffffffffffffff16611cfb82610f2f565b73ffffffffffffffffffffffffffffffffffffffff1614611d51576040517f08c379a0000000000000000000000000000000000000000000000000000000008152600401611d4890613720565b60405180910390fd5b600073ffffffffffffffffffffffffffffffffffffffff168273ffffffffffffffffffffffffffffffffffffffff161415611dc1576040517f08c379a0000000000000000000000000000000000000000000000000000000008152600401611db890613760565b60405180910390fd5b611dcc83838361261e565b611dd76000826116b5565b6001600360008573ffffffffffffffffffffffffffffffffffffffff1673ffffffffffffffffffffffffffffffffffffffff1681526020019081526020016000206000828254611e279190613ac8565b925050819055506001600360008473ffffffffffffffffffffffffffffffffffffffff1673ffffffffffffffffffffffffffffffffffffffff1681526020019081526020016000206000828254611e7e91906139e7565b92505081905550816002600083815260200190815260200160002060006101000a81548173ffffffffffffffffffffffffffffffffffffffff021916908373ffffffffffffffffffffffffffffffffffffffff160217905550808273ffffffffffffffffffffffffffffffffffffffff168473ffffffffffffffffffffffffffffffffffffffff167fddf252ad1be2c89b69c2b068fc378daa952ba7f163c4a11628f55a4df523b3ef60405160405180910390a4611f3d838383612732565b505050565b8173ffffffffffffffffffffffffffffffffffffffff168373ffffffffffffffffffffffffffffffffffffffff161415611fb1576040517f08c379a0000000000000000000000000000000000000000000000000000000008152600401611fa890613780565b60405180910390fd5b80600560008573ffffffffffffffffffffffffffffffffffffffff1673ffffffffffffffffffffffffffffffffffffffff16815260200190815260200160002060008473ffffffffffffffffffffffffffffffffffffffff1673ffffffffffffffffffffffffffffffffffffffff16815260200190815260200160002060006101000a81548160ff0219169083151502179055508173ffffffffffffffffffffffffffffffffffffffff168373ffffffffffffffffffffffffffffffffffffffff167f17307eab39ab6107e8899845ad3d59bd9653f200f220920489ca2b5937696c31836040516120a291906136a3565b60405180910390a3505050565b6120ba848484611cdb565b6120c684848484612822565b612105576040517f08c379a00000000000000000000000000000000000000000000000000000000081526004016120fc90613700565b60405180910390fd5b50505050565b6000600b600084815260200190815260200160002060010160008373ffffffffffffffffffffffffffffffffffffffff1673ffffffffffffffffffffffffffffffffffffffff1681526020019081526020016000205490506000600c60008473ffffffffffffffffffffffffffffffffffffffff1673ffffffffffffffffffffffffffffffffffffffff16815260200190815260200160002054905060008373ffffffffffffffffffffffffffffffffffffffff166370a08231306040518263ffffffff1660e01b81526004016121e291906135ce565b60206040518083038186803b1580156121fa57600080fd5b505afa15801561220e573d6000803e3d6000fd5b505050506040513d601f19601f82011682018060405250810190612232919061309f565b90506000612240868661082c565b90508181111561224e578190505b60008111156123e857828411156122a9576000600c60008773ffffffffffffffffffffffffffffffffffffffff1673ffffffffffffffffffffffffffffffffffffffff16815260200190815260200160002081905550612300565b83600c60008773ffffffffffffffffffffffffffffffffffffffff1673ffffffffffffffffffffffffffffffffffffffff16815260200190815260200160002060008282546122f89190613ac8565b925050819055505b6000600b600088815260200190815260200160002060010160008773ffffffffffffffffffffffffffffffffffffffff1673ffffffffffffffffffffffffffffffffffffffff168152602001908152602001600020819055508473ffffffffffffffffffffffffffffffffffffffff1663a9059cbb33836040518363ffffffff1660e01b8152600401612394929190613635565b602060405180830381600087803b1580156123ae57600080fd5b505af11580156123c2573d6000803e3d6000fd5b505050506040513d601f19601f820116820180604052508101906123e69190612ffb565b505b505050505050565b606060405180602001604052806000815250905090565b6060600082141561244f576040518060400160405280600181526020017f300000000000000000000000000000000000000000000000000000000000000081525090506125af565b600082905060005b6000821461248157808061246a90613c44565b915050600a8261247a9190613a3d565b9150612457565b60008167ffffffffffffffff8111156124c3577f4e487b7100000000000000000000000000000000000000000000000000000000600052604160045260246000fd5b6040519080825280601f01601f1916602001820160405280156124f55781602001600182028036833780820191505090505b5090505b600085146125a85760018261250e9190613ac8565b9150600a8561251d9190613cc3565b603061252991906139e7565b60f81b818381518110612565577f4e487b7100000000000000000000000000000000000000000000000000000000600052603260045260246000fd5b60200101907effffffffffffffffffffffffffffffffffffffffffffffffffffffffffffff1916908160001a905350600a856125a19190613a3d565b94506124f9565b8093505050505b919050565b60007f01ffc9a7000000000000000000000000000000000000000000000000000000007bffffffffffffffffffffffffffffffffffffffffffffffffffffffff1916827bffffffffffffffffffffffffffffffffffffffffffffffffffffffff1916149050919050565b6126298383836129b9565b600073ffffffffffffffffffffffffffffffffffffffff168373ffffffffffffffffffffffffffffffffffffffff16141561266c57612667816129be565b6126ab565b8173ffffffffffffffffffffffffffffffffffffffff168373ffffffffffffffffffffffffffffffffffffffff16146126aa576126a98382612a07565b5b5b600073ffffffffffffffffffffffffffffffffffffffff168273ffffffffffffffffffffffffffffffffffffffff1614156126ee576126e981612b74565b61272d565b8273ffffffffffffffffffffffffffffffffffffffff168273ffffffffffffffffffffffffffffffffffffffff161461272c5761272b8282612cb7565b5b5b505050565b505050565b6000806040518060a001604052808581526020013073ffffffffffffffffffffffffffffffffffffffff1681526020014281526020018481526020016000815250905073e592427a0aece92de3edee1f18e0157c0586156473ffffffffffffffffffffffffffffffffffffffff1663c04b8d59826040518263ffffffff1660e01b81526004016127c79190613900565b602060405180830381600087803b1580156127e157600080fd5b505af11580156127f5573d6000803e3d6000fd5b505050506040513d601f19601f82011682018060405250810190612819919061309f565b91505092915050565b60006128438473ffffffffffffffffffffffffffffffffffffffff16612d36565b156129ac578373ffffffffffffffffffffffffffffffffffffffff1663150b7a0261286c6116ad565b8786866040518563ffffffff1660e01b815260040161288e94939291906135e9565b602060405180830381600087803b1580156128a857600080fd5b505af19250505080156128d957506040513d601f19601f820116820180604052508101906128d6919061304d565b60015b61295c573d8060008114612909576040519150601f19603f3d011682016040523d82523d6000602084013e61290e565b606091505b50600081511415612954576040517f08c379a000000000000000000000000000000000000000000000000000000000815260040161294b90613700565b60405180910390fd5b805181602001fd5b63150b7a0260e01b7bffffffffffffffffffffffffffffffffffffffffffffffffffffffff1916817bffffffffffffffffffffffffffffffffffffffffffffffffffffffff1916149150506129b1565b600190505b949350505050565b505050565b6008805490506009600083815260200190815260200160002081905550600881908060018154018082558091505060019003906000526020600020016000909190919091505550565b60006001612a1484610fe1565b612a1e9190613ac8565b9050600060076000848152602001908152602001600020549050818114612b03576000600660008673ffffffffffffffffffffffffffffffffffffffff1673ffffffffffffffffffffffffffffffffffffffff168152602001908152602001600020600084815260200190815260200160002054905080600660008773ffffffffffffffffffffffffffffffffffffffff1673ffffffffffffffffffffffffffffffffffffffff168152602001908152602001600020600084815260200190815260200160002081905550816007600083815260200190815260200160002081905550505b6007600084815260200190815260200160002060009055600660008573ffffffffffffffffffffffffffffffffffffffff1673ffffffffffffffffffffffffffffffffffffffff16815260200190815260200160002060008381526020019081526020016000206000905550505050565b60006001600880549050612b889190613ac8565b9050600060096000848152602001908152602001600020549050600060088381548110612bde577f4e487b7100000000000000000000000000000000000000000000000000000000600052603260045260246000fd5b906000526020600020015490508060088381548110612c26577f4e487b7100000000000000000000000000000000000000000000000000000000600052603260045260246000fd5b906000526020600020018190555081600960008381526020019081526020016000208190555060096000858152602001908152602001600020600090556008805480612c9b577f4e487b7100000000000000000000000000000000000000000000000000000000600052603160045260246000fd5b6001900381819060005260206000200160009055905550505050565b6000612cc283610fe1565b905081600660008573ffffffffffffffffffffffffffffffffffffffff1673ffffffffffffffffffffffffffffffffffffffff168152602001908152602001600020600083815260200190815260200160002081905550806007600084815260200190815260200160002081905550505050565b6000808273ffffffffffffffffffffffffffffffffffffffff163b119050919050565b6000612d6c612d6784613962565b61393d565b905082815260208101848484011115612d8457600080fd5b612d8f848285613b9f565b509392505050565b600081359050612da681614282565b92915050565b600081359050612dbb81614299565b92915050565b600081519050612dd081614299565b92915050565b600081359050612de5816142b0565b92915050565b600081519050612dfa816142b0565b92915050565b600082601f830112612e1157600080fd5b8135612e21848260208601612d59565b91505092915050565b600081359050612e39816142c7565b92915050565b600081519050612e4e816142c7565b92915050565b600060208284031215612e6657600080fd5b6000612e7484828501612d97565b91505092915050565b60008060408385031215612e9057600080fd5b6000612e9e85828601612d97565b9250506020612eaf85828601612d97565b9150509250929050565b600080600060608486031215612ece57600080fd5b6000612edc86828701612d97565b9350506020612eed86828701612d97565b9250506040612efe86828701612e2a565b9150509250925092565b60008060008060808587031215612f1e57600080fd5b6000612f2c87828801612d97565b9450506020612f3d87828801612d97565b9350506040612f4e87828801612e2a565b925050606085013567ffffffffffffffff811115612f6b57600080fd5b612f7787828801612e00565b91505092959194509250565b60008060408385031215612f9657600080fd5b6000612fa485828601612d97565b9250506020612fb585828601612dac565b9150509250929050565b60008060408385031215612fd257600080fd5b6000612fe085828601612d97565b9250506020612ff185828601612e2a565b9150509250929050565b60006020828403121561300d57600080fd5b600061301b84828501612dc1565b91505092915050565b60006020828403121561303657600080fd5b600061304484828501612dd6565b91505092915050565b60006020828403121561305f57600080fd5b600061306d84828501612deb565b91505092915050565b60006020828403121561308857600080fd5b600061309684828501612e2a565b91505092915050565b6000602082840312156130b157600080fd5b60006130bf84828501612e3f565b91505092915050565b600080604083850312156130db57600080fd5b60006130e985828601612e2a565b92505060206130fa85828601612d97565b9150509250929050565b6000806040838503121561311757600080fd5b600061312585828601612e2a565b925050602061313685828601612e2a565b9150509250929050565b61314981613afc565b82525050565b61315881613afc565b82525050565b61316f61316a82613afc565b613c8d565b82525050565b61317e81613b0e565b82525050565b600061318f82613993565b61319981856139a9565b93506131a9818560208601613bae565b6131b281613db0565b840191505092915050565b60006131c882613993565b6131d281856139ba565b93506131e2818560208601613bae565b6131eb81613db0565b840191505092915050565b6131ff81613b8d565b82525050565b60006132108261399e565b61321a81856139cb565b935061322a818560208601613bae565b61323381613db0565b840191505092915050565b60006132498261399e565b61325381856139dc565b9350613263818560208601613bae565b80840191505092915050565b600061327c602b836139cb565b915061328782613ddb565b604082019050919050565b600061329f6032836139cb565b91506132aa82613e2a565b604082019050919050565b60006132c26025836139cb565b91506132cd82613e79565b604082019050919050565b60006132e5601c836139cb565b91506132f082613ec8565b602082019050919050565b60006133086024836139cb565b915061331382613ef1565b604082019050919050565b600061332b6019836139cb565b915061333682613f40565b602082019050919050565b600061334e602c836139cb565b915061335982613f69565b604082019050919050565b60006133716038836139cb565b915061337c82613fb8565b604082019050919050565b6000613394602a836139cb565b915061339f82614007565b604082019050919050565b60006133b76029836139cb565b91506133c282614056565b604082019050919050565b60006133da6020836139cb565b91506133e5826140a5565b602082019050919050565b60006133fd602c836139cb565b9150613408826140ce565b604082019050919050565b6000613420600b836139cb565b915061342b8261411d565b602082019050919050565b6000613443602f836139cb565b915061344e82614146565b604082019050919050565b60006134666021836139cb565b915061347182614195565b604082019050919050565b60006134896031836139cb565b9150613494826141e4565b604082019050919050565b60006134ac602c836139cb565b91506134b782614233565b604082019050919050565b600060a08301600083015184820360008601526134df8282613184565b91505060208301516134f46020860182613140565b506040830151613507604086018261354f565b50606083015161351a606086018261354f565b50608083015161352d608086018261354f565b508091505092915050565b61354961354482613b74565b613cb1565b82525050565b61355881613b83565b82525050565b61356781613b83565b82525050565b6000613579828661315e565b6014820191506135898285613538565b600382019150613599828461315e565b601482019150819050949350505050565b60006135b6828561323e565b91506135c2828461323e565b91508190509392505050565b60006020820190506135e3600083018461314f565b92915050565b60006080820190506135fe600083018761314f565b61360b602083018661314f565b613618604083018561355e565b818103606083015261362a81846131bd565b905095945050505050565b600060408201905061364a600083018561314f565b613657602083018461355e565b9392505050565b6000608082019050613673600083018761314f565b613680602083018661355e565b61368d604083018561314f565b61369a60608301846131f6565b95945050505050565b60006020820190506136b86000830184613175565b92915050565b600060208201905081810360008301526136d88184613205565b905092915050565b600060208201905081810360008301526136f98161326f565b9050919050565b6000602082019050818103600083015261371981613292565b9050919050565b60006020820190508181036000830152613739816132b5565b9050919050565b60006020820190508181036000830152613759816132d8565b9050919050565b60006020820190508181036000830152613779816132fb565b9050919050565b600060208201905081810360008301526137998161331e565b9050919050565b600060208201905081810360008301526137b981613341565b9050919050565b600060208201905081810360008301526137d981613364565b9050919050565b600060208201905081810360008301526137f981613387565b9050919050565b60006020820190508181036000830152613819816133aa565b9050919050565b60006020820190508181036000830152613839816133cd565b9050919050565b60006020820190508181036000830152613859816133f0565b9050919050565b6000602082019050818103600083015261387981613413565b9050919050565b6000602082019050818103600083015261389981613436565b9050919050565b600060208201905081810360008301526138b981613459565b9050919050565b600060208201905081810360008301526138d98161347c565b9050919050565b600060208201905081810360008301526138f98161349f565b9050919050565b6000602082019050818103600083015261391a81846134c2565b905092915050565b6000602082019050613937600083018461355e565b92915050565b6000613947613958565b90506139538282613c13565b919050565b6000604051905090565b600067ffffffffffffffff82111561397d5761397c613d81565b5b61398682613db0565b9050602081019050919050565b600081519050919050565b600081519050919050565b600082825260208201905092915050565b600082825260208201905092915050565b600082825260208201905092915050565b600081905092915050565b60006139f282613b83565b91506139fd83613b83565b9250827fffffffffffffffffffffffffffffffffffffffffffffffffffffffffffffffff03821115613a3257613a31613cf4565b5b828201905092915050565b6000613a4882613b83565b9150613a5383613b83565b925082613a6357613a62613d23565b5b828204905092915050565b6000613a7982613b83565b9150613a8483613b83565b9250817fffffffffffffffffffffffffffffffffffffffffffffffffffffffffffffffff0483118215151615613abd57613abc613cf4565b5b828202905092915050565b6000613ad382613b83565b9150613ade83613b83565b925082821015613af157613af0613cf4565b5b828203905092915050565b6000613b0782613b54565b9050919050565b60008115159050919050565b60007fffffffff0000000000000000000000000000000000000000000000000000000082169050919050565b600061ffff82169050919050565b600073ffffffffffffffffffffffffffffffffffffffff82169050919050565b600062ffffff82169050919050565b6000819050919050565b6000613b9882613b46565b9050919050565b82818337600083830152505050565b60005b83811015613bcc578082015181840152602081019050613bb1565b83811115613bdb576000848401525b50505050565b60006002820490506001821680613bf957607f821691505b60208210811415613c0d57613c0c613d52565b5b50919050565b613c1c82613db0565b810181811067ffffffffffffffff82111715613c3b57613c3a613d81565b5b80604052505050565b6000613c4f82613b83565b91507fffffffffffffffffffffffffffffffffffffffffffffffffffffffffffffffff821415613c8257613c81613cf4565b5b600182019050919050565b6000613c9882613c9f565b9050919050565b6000613caa82613dce565b9050919050565b6000613cbc82613dc1565b9050919050565b6000613cce82613b83565b9150613cd983613b83565b925082613ce957613ce8613d23565b5b828206905092915050565b7f4e487b7100000000000000000000000000000000000000000000000000000000600052601160045260246000fd5b7f4e487b7100000000000000000000000000000000000000000000000000000000600052601260045260246000fd5b7f4e487b7100000000000000000000000000000000000000000000000000000000600052602260045260246000fd5b7f4e487b7100000000000000000000000000000000000000000000000000000000600052604160045260246000fd5b6000601f19601f8301169050919050565b60008160e81b9050919050565b60008160601b9050919050565b7f455243373231456e756d657261626c653a206f776e657220696e646578206f7560008201527f74206f6620626f756e6473000000000000000000000000000000000000000000602082015250565b7f4552433732313a207472616e7366657220746f206e6f6e20455243373231526560008201527f63656976657220696d706c656d656e7465720000000000000000000000000000602082015250565b7f4552433732313a207472616e736665722066726f6d20696e636f72726563742060008201527f6f776e6572000000000000000000000000000000000000000000000000000000602082015250565b7f4552433732313a20746f6b656e20616c7265616479206d696e74656400000000600082015250565b7f4552433732313a207472616e7366657220746f20746865207a65726f2061646460008201527f7265737300000000000000000000000000000000000000000000000000000000602082015250565b7f4552433732313a20617070726f766520746f2063616c6c657200000000000000600082015250565b7f4552433732313a206f70657261746f7220717565727920666f72206e6f6e657860008201527f697374656e7420746f6b656e0000000000000000000000000000000000000000602082015250565b7f4552433732313a20617070726f76652063616c6c6572206973206e6f74206f7760008201527f6e6572206e6f7220617070726f76656420666f7220616c6c0000000000000000602082015250565b7f4552433732313a2062616c616e636520717565727920666f7220746865207a6560008201527f726f206164647265737300000000000000000000000000000000000000000000602082015250565b7f4552433732313a206f776e657220717565727920666f72206e6f6e657869737460008201527f656e7420746f6b656e0000000000000000000000000000000000000000000000602082015250565b7f4552433732313a206d696e7420746f20746865207a65726f2061646472657373600082015250565b7f4552433732313a20617070726f76656420717565727920666f72206e6f6e657860008201527f697374656e7420746f6b656e0000000000000000000000000000000000000000602082015250565b7f4e6f7420616c6c6f776564000000000000000000000000000000000000000000600082015250565b7f4552433732314d657461646174613a2055524920717565727920666f72206e6f60008201527f6e6578697374656e7420746f6b656e0000000000000000000000000000000000602082015250565b7f4552433732313a20617070726f76616c20746f2063757272656e74206f776e6560008201527f7200000000000000000000000000000000000000000000000000000000000000602082015250565b7f4552433732313a207472616e736665722063616c6c6572206973206e6f74206f60008201527f776e6572206e6f7220617070726f766564000000000000000000000000000000602082015250565b7f455243373231456e756d657261626c653a20676c6f62616c20696e646578206f60008201527f7574206f6620626f756e64730000000000000000000000000000000000000000602082015250565b61428b81613afc565b811461429657600080fd5b50565b6142a281613b0e565b81146142ad57600080fd5b50565b6142b981613b1a565b81146142c457600080fd5b50565b6142d081613b83565b81146142db57600080fd5b5056fea26469706673582212202c191ad83e7633dc40e31107491d8cf714f6db7ed3f61c379c82aa61d4f8b98464736f6c63430008040033",
  "linkReferences": {},
  "deployedLinkReferences": {}
}